:020000040000fa
:080000000002040000000000f2
:020000040000fa
:10000800fc020000020300001e03000008030000b9
:100018000e03000014030000220300001a0300006e
:100028001a0300001a0300001a0300001a03000054
:100038001a0300001a0300001a0300001a03000044
:100048001a0300001a0300001a0300001a03000034
:100058001a030000723600001a0300001a03000099
:100068001a0300001a0300001a0300001a03000014
:100078001a0300001a0300001a0300001a03000004
:100088001a0300001a0300001a0300001a030000f4
:100098001a0300001a0300001a0300001a030000e4
:1000a8001a0300001a0300001a0300001a030000d4
:1000b8001a0300001a0300001a0300001a030000c4
:1000c8001a0300001a0300001a0300001a030000b4
:1000d8001a0300001a0300001a0300001a030000a4
:1000e8001a0300001a0300001a0300001a03000094
:1000f8001a0300001a0300001a0300001a03000084
:100108001a0300001a0300001a0300001a03000073
:100118001a0300001a0300001a0300001a03000063
:100128001a0300001a0300001a0300001a03000053
:100138001a0300001a0300001a0300001a03000043
:100148001a0300001a0300001a0300001a03000033
:100158001a0300001a0300001a0300001a03000023
:100168001a0300001a0300001a0300001a03000013
:100178001a0300001a0300001a0300001a03000003
:100188001a0300001a0300001a0300001a030000f3
:100198001a0300001a0300001a0300001a030000e3
:1001a8001a0300001a0300001a0300001a030000d3
:1001b8001a0300001a0300001a0300001a030000c3
:1001c8001a0300001a0300001a0300001a030000b3
:1001d8001a0300001a0300001a0300001a030000a3
:1001e8001a0300001a0300001a0300001a03000093
:1001f8001a0300001a0300001a0300001a03000083
:100208001a0300001a0300001a0300001a03000072
:100218001a0300001a0300001a0300001a03000062
:100228001a0300001a0300001a0300001a03000052
:100238001a0300001a0300001a0300001a03000042
:100248001a0300001a0300001a0300001a03000032
:100258001a0300001a0300001a0300001a03000022
:020000040000fa
:100400002f9d21000ebe23000e0188000000000079
:1004100000012000200288000c000700803a230021
:10042000010020000f000700000020000000e00095
:100430000200320000000200000000000e2802004e
:10044000000000000040da000000fe0080082000ec
:100450000000e0000200320000202000900188002f
:1004600000000600a1028800800078000000eb0078
:100470001a003700e280400054a0b4009101ba0095
:10048000e280400054a0b4009102ba00e280400033
:1004900054a0b4000002eb00472bde00f507b200c9
:1004a000a6018800602ce10008003a000049eb003a
:1004b0000201e800020039003420ec0002f0a00044
:1004c0008301e900f9ff3e00040037006128e100e4
:1004d000010032000082eb00040007001101ba00a5
:1004e0000200e000e3ff3a000000060004d0a30091
:1004f000e20f49001c003900810278003549ba003a
:100500000201e800020039003420ec0002f0a000f3
:100510008301e9000f0032002549ba000201e8001a
:10052000020039003420ec0002f0a0008301e90051
:10053000080032000400e0000600320015c9ba00cd
:100540000201e800020039003420ec0002f0a000b3
:100550008301e9008180e80054a0b4000300e000ba
:10056000e2ff3a00000006009102ba000559780047
:100570008301e900f7ff3200c82ade000559780040
:100580008301e900f3ff32000400e000f1ff3200d4
:1005900011d9ba00eeff37004a2b0400000000001a
:1005a000422b0400000000006e2b0400000000003d
:1005b000522b0400000000008c1f0400000000000b
:1005c000921f040000000000981f040000000000bb
:1005d0009e1f040000000000a41f04000000000093
:1005e000be1f040000000000da1f0400000000002d
:1005f000e41f0400000000000000fa00c028a90069
:10060000ffff37000000fa00c068a900ffff3700b5
:100610000000fa00c048a900ffff37000000fa0000
:10062000c088a900ffff37000000fa00c0a8a90099
:10063000ffff37000000fa00ffff37000000fa005c
:10064000ffff37000000fa00ffff37006022b8000c
:10065000060220000000d0008180d2000482d20077
:100660008582d2000000a0000202520083825a005c
:10067000030031000202420083824a000000a10010
:100680000603e900f3ff3a00000006000000fa004c
:100690000002780002003700315a78000201e900b8
:1006a000e00f5100fcff3a000080fa000000060055
:1006b0000c00fa00889fbe0000047800f4ff2700b9
:1006c000540798008004eb0019079800080f780081
:1006d00028079800240c2000340798006801570070
:1006e000ceb897000e007800060007001e027800c2
:1006f000094a78001e0014004f04be000080fa0072
:10070000000006003200fa00889fbe008a9fbe00eb
:100710008c9fbe00500f9800310f98002217980050
:100720008006eb007f023700be0890008100e800e1
:10073000310f980054c2b300844f500006003a00b5
:10074000010278000006eb0001c3b30000c2b30051
:10075000b7c2b300070037000000fb00de089000be
:1007600082020700e10f40006e0232008d06e800b1
:100770006c0237008402780034437800d2c2b300a0
:10078000824f53000900320005003c00804f5300a7
:1007900008003200874f53000c003a000700370072
:1007a000814f530009003a00060037000c30a000ca
:1007b000f0ff37000c00a000eeff37000c10a00087
:1007c000ecff37000c20a000eaff37006202660051
:1007d000010032000c00a100680266000100320036
:1007e0000c20a1000602fb000403b100e90f520037
:1007f0000c003e00050378000002eb00ea22b8007e
:10080000b602fb000503b1000482420086027800b4
:100810009603fb000703b100e98f5300f7ff360092
:10082000080037000002eb00a7c2b300874f530057
:1008300004003a00ae11900043027800231798009c
:100840008502e8000003eb0036179800e6c2b3000b
:10085000954f13000c003a000ce0a00064435300d5
:10086000d54f130003003200050378000000eb00b1
:1008700009003700ae139000470078002717980052
:10088000301798008502e80005037800090037005a
:10089000ea00b8000080430086027800b603fb003f
:1008a0000703b100e98f5300f9ff360030179800b5
:1008b000f5ff3700b6427800360f9800c2c6b30085
:1008c00082cf5200250032000f003c0036c6b30034
:1008d00086cf52007500320004003c00e0cf520089
:1008e000150232006b4353000f00370046c6b300b9
:1008f00086cf5200170032006543430086cf520076
:1009000089003a001300370036c7b30086cf520083
:100910001f00320007003c006443530086cf5200a2
:10092000140032000643e80086cf52007e003a00f1
:100930001300370056c7b30086cf52007e00320046
:100940006343430086cf520077003a00054f78009a
:100950000d003700054f780079003700f00366007e
:100960000501200001003200050028000506760080
:10097000d0ff3700054f78000c60a00070003700f2
:10098000054f78000c50a0000c70a0006c003700e0
:10099000054f7800ae119000c3027800231798002d
:1009a00005047800e08f520001003a0028962100eb
:1009b000080378008002eb00010037008502e800a0
:1009c000850343000040eb00974f1000fbff3a0007
:1009d00085047800be109000e08f500003003200c4
:1009e000898f500001003100810478008002eb0003
:1009f000890f520001003600890252006806660025
:100a000018003a0009003700de08900000022000bc
:100a100075179800d5010700fe129000e10f400005
:100a2000010032008d06e8008502e900e08f5200e7
:100a3000f5ff3a008082eb000a00370008027800d8
:100a40003400fb0004047800de089000751798005d
:100a5000c6010700fe129000e10f400001003200c5
:100a60008d06e800090278008404e900e00f5200d6
:100a7000f2ff3a00e00f5600aa01320005067800a6
:100a800007003700de08900000022000b7010700d1
:100a9000e10f4000010032008d06e8000c06e9007d
:100aa000e00f5600f7ff3a009e0137002e1190002c
:100ab000c20278002217980005007800cf80de007f
:100ac0000101780082017800600f9800710f980092
:100ad00002179800131798004800de00c80add00ce
:100ae00000807200004f7800700366000900320039
:100af000e04f500007003200e14f40000500320097
:100b0000104798004e5b900026479800290020006f
:100b100003003700ce5b90001747980019002000b3
:100b20000e04e800abff3700054f78000e04780094
:100b300019002000a7ff3700054f78000c0cb30008
:100b40008c027800050cb2002a003a00e00f560033
:100b500005003d002e1090004005be004004be0080
:100b60002017980016003700f00266000e003200d1
:100b7000ae1290004501be0025179800320798007c
:100b80004307980095029000cfaade005507980011
:100b9000650798003e049000ce0490005e0590002a
:100ba000ee05900006003700ae1390004704780071
:100bb00027179800cfc4de00090578008a05780061
:100bc000e00f5400e08f5c00e00f5d00e08f5d00ff
:100bd00025003d003c00b3006000b8006011b80083
:100be00008045000898458000a0559008b85590073
:100bf0001d003700e00f560005003d002e1090004c
:100c00004005be004004be002017980016003700c3
:100c1000f00266000e003200ae1290004501be00e8
:100c20002517980072079800030f98000003eb0047
:100c3000160f98008003eb00270f98007e049000a9
:100c40008e0c90001e0d9000ae0d90000600370037
:100c50002e10900040047800201798000900200012
:100c60000a0020000b002000be109000e08f500012
:100c700009003a001200200032179800e00f5400db
:100c8000e08f5c00e00f5d00e08f5d00020032004d
:100c90008001eb00331798008c027800050cb2003d
:100ca000650f9800050420006e0b9000850f53001f
:100cb0002c00320003003c00e00f5300080032001b
:100cc0003c00370005082000ee0b9000858f530094
:100cd00010003200050c2000858f530035003a00cb
:100ce0004687210015c0b3003600be003601be00a5
:100cf0000040e10001c8e10002d0e10003d8e100ba
:100d00002b0039008542e800f4cf5200f6ff3a008c
:100d10002700370015c0b3000001200001002000ab
:100d20006011b8000040e10001c8e10002d0e1001c
:100d300003d8e1001e003900460020000000d0006a
:100d40008180d2000281d2008381d2000603e900b3
:100d5000faff3a008542e800f0cf5200f1ff3a0076
:100d60001300370015c0b3008000200001002000f0
:100d70006011b8000040e10001c8e10002d0e100cc
:100d800003d8e1000a003900370020000000d0003d
:100d90008180d2000281d2008381d2008703e900e2
:100da000faff3a008542e800f5cf5200f1ff3a0021
:100db000054f78009e02fb003e109000808f52008d
:100dc00002003d00004f780004003700be10900084
:100dd000858f500001003d0035179800e00f52004c
:100de00003003200e3026600010032000402e90061
:100df0000500240085026600060032003e119000c6
:100e0000820f52000200340002025200010037003b
:100e10000002eb009e02fb008001eb00430f9800f4
:100e2000850f52000200340085025200450f9800e1
:100e3000640266002c003200e20266006102660075
:100e4000e08f520006003200b0022000e00f520096
:100e5000010032000080e800de0890000400370046
:100e6000e00f520006003200de0890000002200071
:100e7000be000700e10f4000010032008d06e800cf
:100e80004e0a9000e00f5200900032000802be00af
:100e90000a03be00ce0c9000de0890000003200084
:100ea0004417980075179800561798006717980010
:100eb000ae0007004e129000fe1290005e139000ec
:100ec000ee139000e10f4000010032008d06e800b3
:100ed0008904e900f0ff3a00490f98000605be00ba
:100ee0000404be0079003700ce0a9000e08f520063
:100ef000180032006802660016003a000802be00c0
:100f00000a03be00ce0c9000de0890000002200014
:100f1000441798007517980056179800671798009f
:100f2000920007004e129000fe1290005e13900097
:100f3000ee139000e10f4000010032008d06e80042
:100f40008904e900f0ff3a00490f98000605be0049
:100f50000404be00e202660061026600e08f5200f7
:100f600006003200b0022000e00f52000100320003
:100f70000080e800de08900004003700e00f520017
:100f800052003200de0890000002200077000700c7
:100f9000e10f40004d0032008d06e8004b003700a5
:100fa0003e1390000603e90036179800ee0b900000
:100fb0000c0420008c8f53002e00320003003c00f4
:100fc000e08f530008003200390037000408200089
:100fd0006e089000840f500012003200040c2000b4
:100fe000840f500032003a00be109000430add002a
:100ff000c2862100020242005403be004402be0029
:101000000800be000a01be00b1010700a4002000d4
:10101000050020006033b800b601070004c3b30028
:101020002200370014952100ae029000e08f52009c
:1010300001003200049421003e139000c232dd0012
:101040000800be000a01be008502e9000500330069
:101050008301d1000281d3008180d3000080d300be
:10106000f9ff37006f00600000004200104f780069
:101070000f003700be139000e33ab8000800be002e
:101080000a01be00040678000c06e90005003300e2
:101090008301d1000281d3008180d3000080d3007e
:1010a000f9ff37006742600000c3b300004f420001
:1010b0001e00fb00de0890002c000700e10f40003e
:1010c000060032008d06e800040037008c0078002e
:1010d0000102b200210798000c1f98003e119000f9
:1010e000e00f5100aeff3a000e1e90006806660049
:1010f0000c003200ce099000e08f5100090034004e
:1011000003067800de0890000002200017000700a8
:10111000e10f4000010032008d06e8000c06e900f6
:10112000f8ff3a003e0a900014407800004f780023
:10113000e04f50007cfd3a000d0078004f06be00e5
:101140004f05be004f04be000080fa0000000600fc
:101150000000fa0068015700ceb8970060972100a0
:1011600068fd07000080fa00000006000000fa0099
:10117000889fbe000104780038029000e2026200fd
:101180008084eb003b003200040378000620b200ac
:101190009802900002003a00e08f520035003a00b9
:1011a0000490a0003404980080047800f90fb20085
:1011b000e08f520002003a00a8029000050c78006f
:1011c000ea8f540005003a000408b20003003a0018
:1011d00088007800d0002000e4ff0700180290008b
:1011e000d8029000850f52000b0032000402e80084
:1011f0001404980018027800094a7800040ce800ea
:1012000015c0b300649c2100054a7800ea8f5400a1
:1012100018003a000500370088007800094078007f
:101220001800070080047800120037003802900090
:101230000410b2000f00320018019000a8009000c6
:10124000480090005300070018029000840f5000df
:1012500004003200380290000403b3003404980004
:101260008084eb000002eb00140498002802900038
:10127000040c7800090078004f04be000080fa00da
:10128000000006000200fa00889fbe00004f7800b0
:101290000104780038029000840278000504b2004e
:1012a000020032000000fb0033003700e20262005f
:1012b00005003a000403b3003404980015049800b4
:1012c0000080eb002c003700d8049000e08f540021
:1012d00006003a00120020008e00780048009000be
:1012e0002c0007001904980022003700a802900083
:1012f000e08f520008003a00959c210025049800d8
:10130000050c78002500200055049800150498006d
:101310000430a0003404980018019000a800900048
:10132000480090001b000700280290008082eb001c
:10133000150498001e4a7800040ce800a4c0b3000d
:101340009e4f12000b003a00380290000410b200c9
:101350000800320018019000a8009000480090009a
:101360000c0007000002eb00140498002802900013
:10137000040c78001e00fb004f04be000080fa0041
:10138000000006000000fa0000c0da000080fa0049
:10139000000006000a00fa00e20f500022003e00a2
:1013a00084ce8000e10f5200060032008723200027
:1013b000462320002423200005232000e08f530033
:1013c00004003a0087222000462220002422200028
:1013d00005222000000028001500600003003a00ec
:1013e000800b780007002800958a730005402000d4
:1013f0009482620001003a0014a0a00082027800ea
:1014000006003700940378000710b200fdff320099
:10141000b103fb00070b78008502e900e08f520062
:10142000f8ff3a000800370034002000040f78006d
:101430001007980021079800320798000e007800e6
:10144000d0ff07003e019000020078000080fa0003
:10145000000006000000fa00889fbe008a9fbe00c0
:101460003004be002005be000404440085844c0006
:1014700006054d0087854d000898be000a90be0005
:101480000440e10005c8e10006d0e10007d8e10012
:1014900002003100680040001008e8004f05be005f
:1014a0004f04be000080fa00000006001000fa00a1
:1014b000889fbe008a9fbe000605be000404be00d1
:1014c0003002be002003be00049fbe000697be008f
:1014d0000802520089825a000a035b008b835b007a
:1014e000440798005507980066079800770798000a
:1014f0000498be000698be00110020003e02be0007
:101500002e03be000820e10009a8e1000ab0e100b6
:101510000bb8e100010039008000eb0010881000da
:101520004f05be004f04be000080fa000000060018
:101530001400fa00889fbe008a9fbe008c9fbe00e8
:10154000590007000605be000404be000006eb00bb
:101550004c0798003c0798002c0798001c0798003f
:101560000c0f78000d0420004e039000be02900086
:10157000860343002e029000e00f530003003d005d
:101580002a000700b3ff070002003700270007000a
:10159000c6ff0700ce029000150f9800e08f5200a2
:1015a0000900350045000700140020000500200058
:1015b0006033b80000007200818072000201730085
:1015c00083817300380007000c06e8008d0f560079
:1015d000e5ff3a001e0a9000e00f520004003d00b3
:1015e0000802be000a03be000e00780099ff070043
:1015f0004eba9700e00f520006003a003e04be00cb
:101600002e05be0058079800690798007a079800d1
:101610000b0f9800290007004f06be004f05be00c3
:101620004f04be000080fa00000006004f2bde00d1
:1016300087037300470798004f23de00858242002e
:1016400085027300350798009e0290004f2bde0044
:101650000402420004027300240798001e0278006e
:101660004f23de0085824200850273001507980033
:10167000120007004f18de0004024200000f720043
:101680000e00070000004000818048000201490070
:1016900083814900040007000802be000a03be005f
:1016a0000e007800000006005007980061079800bf
:1016b00072079800030f9800000006005e0090007b
:1016c000ee0090007e0190008e0990000000060060
:1016d0000000fa00881f780018002000881f78009a
:1016e00093ff07008f87e9004f0478000080fa001d
:1016f000000006000000fa00801feb008cff0700ce
:101700008f87e9000080fa00000006000000fa0060
:10171000889fbe008a9fbe00e00f5000e08f5800f7
:10172000e00f5900e08f59000c003d006044b80004
:101730006055b8000000540081805c0002015d002b
:1017400083815d00180020001600070008003d009e
:10175000190007000004eb00050037000004eb004f
:101760001000070002003d001300070018002000d1
:10177000d7ff0700e00f5400060032006022b800d7
:101780006033b8000000520081805a0002015b0003
:1017900083815b004f05be004f04be000080fa004d
:1017a00000000600e00f5200e08f5a00e00f5b00df
:1017b000e08f5b00000006006044b8006055b80090
:1017c0000402540085825c0006035d0087835d008f
:1017d000000006000000fa00889fbe008a9fbe003d
:1017e0008c1f7800e00f5000e08f5800e00f590088
:1017f000e08f59000d003d006044b8006055b8000e
:101800000000540081805c0002015d0083815d0066
:101810001c0020000820e10009a8e1000ab0e10056
:101820000bb8e1000d003d00080037000006eb009a
:10183000e00f5200e08f5a00e00f5b00e08f5b008a
:1018400006003d006044b8006055b8000402540032
:1018500085825c0006035d0087835d00a5ff0700ad
:10186000e00f5600060032006022b8006033b80076
:101870000000520081805a0002015b0083815b00fe
:101880004f0678004f05be004f04be000080fa00ee
:04189000000006004e
:020000040000fa
:10189400574900005a4e00004554000020690000da
:1018a400732000005265000073650000740000009e
:1018b400576900007a350000353000003020000000
:1018c40056650000723d00002564000000570000ca
:1018d40061690000746900006e6700002066000002
:1018e4006f720000204c0000696e00006b00000065
:1018f400556e00006b6e00006f7700006e200000d4
:10190400504800005900000050680000797300003e
:1019140069630000616c0000204c0000696e0000e7
:101924006b2000004f6e000000250000642e0000b4
:10193400256400002e250000642e000025640000ac
:10194400005300004f4300004b45000054200000aa
:1019540045520000524f0000522000003a2000007f
:10196400256c0000640d00000a000000436f0000b5
:101974006e6e000065630000746500006400000082
:101984004c69000073740000656e00002050000074
:101994006f72000074200000256400000000000045
:020000040000fa
:1019a4000600fa00004f78001147980012079800cb
:1019b400434798001e427800e84f52000200360068
:1019c40000c2eb00bf0037001e4290000482fb00ff
:1019d400e40f52000b003e0015002000042add0035
:1019e40076026200e00f5200060032004e42900080
:1019f4000482fb0066026200e00f520003003a001a
:101a040004003700b4cfb300ae003700a4cfb30056
:101a1400ac0037004e429000e04f520029003200e3
:101a24001e4290000482fb00e10f520003003200ca
:101a3400e20f520009003200220037004e429000ab
:101a44008482fb001402200004826200e00f520032
:101a540017003a00a4cfb3009a0037004e4290001a
:101a64008482fb000402200004826200e00f520022
:101a7400050032004e429000e04f52000200350053
:101a8400a4cfb3008f0037004e4290000482fb00c5
:101a940070026200e00f5200070032004e429000d4
:101aa400e04f520006003500a4cfb3008500370094
:101ab40000000000030037000000000001003700b0
:101ac400000000001e40780081000700ce42900014
:101ad40004cfb30084c262001e42900004c27200ac
:101ae400044378009e4278000582fb004222dd0018
:101af4000402e8004322dd00cfa2de0006417800a4
:101b04000400be007f1007001e029000e00f520088
:101b140009003a0074ce8000140798000402e8001b
:101b240074ce880074ce8000f00f420002003a00a8
:101b340004002c0074ce88001e0290004822de00af
:101b4400044378009e4278000582fb004222dd00b7
:101b54000402e800c322dd000440200004824200a5
:101b6400cfa2de00064178000400be006510070025
:101b74001e029000044378009e4278000582fb0018
:101b84004222dd000402e800c322dd0004502000ec
:101b940004824200cfa2de00064178000400be00a9
:101ba400581007001e4378000682fb004222dd0025
:101bb4000402e8004322dd000410b000cfa2de00de
:101bc40012c0b3000400be004e1007000000000065
:101bd4009e4278000582fb004222dd000402e800f8
:101be4004322dd000410b000cfa2de000400be00da
:101bf400fc0f070000427800e04f5200f4ff3a0067
:101c04004e4290000482fb00e10262001e43780011
:101c14000682fb00042add008402780084cc800064
:101c24000482720084cc88009e4278000582fb0006
:101c340015002000042add000482ea0084027800f2
:101c440094cc80000482620094cc88001e43780007
:101c54000682fb00cfa2de000402420085824a0015
:101c640046992100060242008002eb00050a780032
:101c74009e4278000582fb00cfa2de00469a210036
:101c8400840243000042eb00844a78000000000014
:101c94001e4378000682fb004222dd000402e800b5
:101ca4004322dd000430b000cfa2de000400be00f9
:101cb400cc0f070000427800e04f5200f4ff3200de
:101cc4001e427800044078000080fa0000000600fc
:101cd4000200fa00004f78001e427800e84f5200dc
:101ce4000200360000c2eb00480037009e42780034
:101cf4000582fb004222dd000402e8004322dd00ed
:101d04000410b000cfa2de0002c1b3000400be0084
:101d1400fc0f0700000000009e4278000582fb00d3
:101d24004222dd000402e8004322dd000410b0007a
:101d3400cfa2de000400be00aa0f07000042780014
:101d4400e04f5200f4ff3a009e4278000582fb0007
:101d54004222dd000402e8004322dd000420b0003a
:101d6400cfa2de00f2c1b3000400be00e50f0700fd
:101d74009e4278000582fb0015002000042add0045
:101d84000482ea008402780094cc80000482620019
:101d940094cc88009e4278000582fb00cfa2de002e
:101da4000402420085824a0046992100060242004c
:101db4008002eb00050a78009e4278000582fb0051
:101dc400cfa2de00469a2100840243000042eb00c9
:101dd400844a7800000000009e4278000582fb00df
:101de4004222dd000402e8004322dd000430b0009a
:101df400cfa2de000400be007a0f07000042780084
:101e0400e04f5200f4ff3a0014c0b30004407800dd
:101e14000080fa00000006000200fa00004f78007b
:101e24001e427800e84f52000200360000c2eb0068
:101e3400520037009e4278000582fb004222dd00fa
:101e44000402e8004322dd00cfa2de000400be004d
:101e5400640f0700004278000482fb006f026200f6
:101e6400e10f520002003200b4cfb3004300370048
:101e74009e4278000582fb004222dd000402e80055
:101e84004322dd000430b000cfa2de000400be0017
:101e9400540f070000427800f34f52000200320052
:101ea400d4cfb300350037009e4278000582fb0092
:101eb4004222dd000402e8004322dd000410b000e9
:101ec400cfa2de0022c0b3000400be008d0f0700c5
:101ed400000000009e4278000582fb004222dd00e3
:101ee4000402e8004322dd000410b000cfa2de00ab
:101ef4000400be003b0f070000427800e04f520090
:101f0400f4ff3a00100037009e4278000582fb007f
:101f14004222dd000402e8004322dd000410b00088
:101f2400cfa2de000400be002e0f0700004278009e
:101f3400e04f520004003a001e40780064ff07009e
:101f4400c4cfb3000d0037009e4278000582fb0029
:101f54004222dd000402e8004322dd000430b00028
:101f6400cfa2de000400be001e0f0700004278006e
:101f7400f44f5200e4ff3a0014c0b3000440780068
:101f84000080fa00000006000600fa00004f780006
:101f940011079800220798001e427800e84f52006b
:101fa4000200360000c2eb00a10037009e42780018
:101fb4000582fb004222dd000402e8004322dd002a
:101fc400cfa2de000400be00060f07000042780026
:101fd4000482fb006f026200e10f52000200320033
:101fe400b4cfb300920037009e4278000582fb0014
:101ff4004222dd000402e8004322dd000430b00088
:10200400cfa2de000400be00f60e070000427800f6
:10201400f34f520002003200d4cfb30084003700e3
:102024001e0290001403be000082eb008082eb00cd
:10203400840f5300858f5b00050032001e02900060
:102044001402be00e00f5200e08f5a0002003a0072
:1020540044cfb300760037002e029000e00f520008
:1020640002003a0054cfb300710037009e4278005a
:102074000582fb004222dd000402e800c322dd00e9
:1020840004c0200004824200cfa2de0043002000ee
:102094001e0190000400be00b80f07002e0290003d
:1020a4004822de00044378009e4278000582fb004b
:1020b4004222dd000402e800c322dd000400210006
:1020c40004824200cfa2de00064178000400be0074
:1020d4000c0f07002e029000044378009e42780003
:1020e4000582fb004222dd000402e800c322dd0079
:1020f4000410210004824200cfa2de0006417800d1
:102104000400be00ff0e07009e4278000582fb001b
:102114004222dd000402e8004322dd000410b00086
:10212400cfa2de0042c0b3000400be00f50e0700db
:10213400000000009e4278000582fb004222dd0080
:102144000402e8004322dd000410b000cfa2de0048
:102154000400be00a30e070000427800e04f5200c6
:10216400f4ff3a009e4278000582fb00150020002f
:10217400042add008402780084cc8000048262009a
:10218400e00f52001c0032000042eb002800370030
:102194009e4278000582fb004222dd000402e80032
:1021a4004322dd000420b000cfa2de000400be0004
:1021b4008c0e0700004278000482fb006802620073
:1021c400e00f52000d0032009e4278000582fb00b1
:1021d4004222dd000402e8004322dd000420b000b6
:1021e400cfa2de0082c0b3000400be00c50e07000b
:1021f40034cfb3000e003700000000009e42780088
:102204000582fb004222dd000402e8004322dd00d7
:102214000430b000cfa2de000400be00710e07003f
:1022240000427800f74f5200d9ff3a0014c0b300bf
:10223400044078000080fa00000006000200fa0062
:10224400004f78001e427800e84f5200020036002a
:1022540000c2eb005a0037009e4278000582fb0062
:102264004222dd000402e8004322dd00cfa2de00aa
:102274000400be005b0e0700004278000482fb00ed
:102284006f026200e10f520002003200b4cfb300cb
:102294004b0037009e4278000582fb004222dd009d
:1022a4000402e8004322dd000410b000cfa2de00e7
:1022b40082c0b3000400be00920e070000000000bc
:1022c4009e4278000582fb004222dd000402e80001
:1022d4004322dd000410b000cfa2de000400be00e3
:1022e400400e070000427800e04f5200f4ff3a002d
:1022f4009e4278000582fb0015002000042add00c0
:102304000482ea008402780094cc80000482620093
:1023140094cc88009e4278000582fb0015002000c2
:10232400042add008402780084cc800004826200e8
:10233400e00f5200140032000042eb00200037008e
:102344009e4278000582fb004222dd000402e80080
:102354004322dd000420b000cfa2de000400be0052
:10236400200e0700004278000482fb00680262002d
:10237400e00f5200050032001e40780054fe0700b2
:1023840034cfb3000e003700000000009e427800f6
:102394000582fb004222dd000402e8004322dd0046
:1023a4000430b000cfa2de000400be000d0e070012
:1023b40000427800e04f5200e1ff3a0014c0b3003d
:1023c400044078000080fa00000006000a00fa00c9
:1023d4004047980031079800420798000042eb00fc
:1023e400044f78000002eb00140798004e4290005e
:1023f400e84f5200030036000082eb008082eb00bd
:10240400cb0037004e4290000482fb004222dd00e4
:102414000402e8004322dd00cfa2de000400be0077
:10242400f00d0700004278000482fb006f02620096
:10243400e10f520003003200b4ff2f00f5ff2f001c
:10244400bb0037004e029000e00f520003003a0038
:1024540024ff2f00f5ff2f00b50037004e429000f7
:102464000482fb004222dd000402e8004322dd0076
:102474000430b000cfa2de000400be00d90d070076
:1024840000427800044f78001e427800f74f520053
:10249400060032001e427800fc4f52000300320056
:1024a40094ff2f00f5ff2f00a10037004e4290004b
:1024b4000482fb0015002000042add008402780059
:1024c40094cc800004826200e00f5200300032009d
:1024d4004e4290000482fb004222dd000402e80028
:1024e4004322dd000420b000cfa2de000400be00c1
:1024f400bc0d0700004278007f4f62009e427800c6
:102504000582fb0070026200e00f520014003200ea
:102514004e4290000482fb004222dd000402e800e7
:102524004322dd000420b000cfa2de0002c1b300cc
:102534000400be00f30d07004e4290000482fb002d
:1025440015002000042add000482ea0084027800d9
:1025540094cc80000482620094cc88000c00370084
:102564009e4278000582fb0068026200e00f520080
:10257400050032004e409000d5fd070034ff2f00c7
:10258400f5ff2f006a0037006022b80068003700aa
:102594004e4290000482fb004222dd000402e80067
:1025a400c322dd0004f0210004824200cfa2de0039
:1025b4000400be008b0d0700004278000482fb007b
:1025c4004a22dd0014079800ce0290001e029000fb
:1025d400848f5200040036001e02900044079800c5
:1025e40001003700000000004e409000c00e0700bc
:1025f40000027800140798004e4290000482fb0009
:102604004222dd000402e8004322dd000430b00071
:10261400cfa2de000400be00720d07000042780065
:10262400044f78001e427800f74f52000800320031
:102634001e427800fc4f5200050032004e409000cc
:10264400a3fd070094ff2f00f5ff2f00380037008b
:102654004e4290000482fb0015002000042add0095
:102664008402780084cc800004826200e00f52006f
:1026740006003200ce0290001e029000848f5200a9
:10268400020036006022b80029003700ce02900014
:102694001e029000848f5200d2ff3e004e01900033
:1026a400be0090004e409000290f07004e4290005b
:1026b4000482fb004222dd000402e8004322dd0024
:1026c4000410b000cfa2de0002c2b3000400be00ba
:1026d4008c0d0700000000004e4290000482fb00b5
:1026e4004222dd000402e8004322dd000410b000b1
:1026f400cfa2de000400be003a0d070000427800bd
:10270400e04f5200f4ff3a004e4290000482fb0076
:1027140015002000042add008402780094cc800097
:102724000482720094cc88004e02900005002000c0
:102734000400be000080fa00000006000a00fa004f
:10274400881f780040479800310798004207980096
:102754000042eb00044f78000002eb0014079800dd
:102764004e429000e84f5200030036000082eb0016
:102774008082eb00960037004e4290000482fb00fa
:102784004222dd000402e8004322dd00cfa2de0085
:102794000400be00130d0700004278000482fb0011
:1027a4006f026200e10f520003003200b4ff2f00f9
:1027b400f5ff2f00860037004e029000e00f520014
:1027c40003003a0024ff2f00f5ff2f00800037009c
:1027d4004e4290000482fb004222dd000402e80025
:1027e400c322dd0004e0210004824200cfa2de0007
:1027f4000400be00fb0c0700004278000482fb00ca
:102804004a22dd00140798009e0290004e029000b8
:10281400848f5200040031001e0290004407980087
:1028240001003700000000004e4090007c0e0700bd
:1028340000027800140798004e4290000482fb00c6
:102844004222dd000402e8004322dd000430b0002f
:10285400cfa2de000400be00e20c070000427800b4
:10286400044f78001e427800f74f520022003200d5
:102874001e427800fc4f52001a003a001e029000db
:10288400e00f52002e003a004e409000180e070050
:10289400000478004e4290000482fb004222dd00d6
:1028a4000402e800c322dd0004f021000482420097
:1028b400cfa2de000400be00ca0c0700004278006c
:1028c4000482fb004a22dd00840f54000a003a000f
:1028d4004e409000fefc070094ff2f00f5ff2f00f0
:1028e4003b0037004e409000f9fc070094ff2f0096
:1028f400f5ff2f00360037004e4290000482fb00a3
:1029040015002000042add008402780084cc8000b5
:1029140004826200e00f5200050032001e029000a3
:10292400e00f520002003a006022b800280037008d
:102934001e029000e00f5200baff3200010037007f
:10294400000000009e0290004e029000848f52000e
:10295400020031001e029000440798004e019000ce
:10296400be0090004e409000dd0e07004e429000e5
:102974000482fb004222dd000402e8004322dd0061
:102984000410b000cfa2de0002c4b3000400be00f5
:10299400dc0c0700000000004e4290000482fb00a3
:1029a4004222dd000402e8004322dd000410b000ee
:1029b400cfa2de000400be008a0c070000427800ab
:1029c400e04f5200f4ff3a004e0290000500200050
:1029d4000400be004f0478000080fa0000000600e6
:1029e4000e00fa004047980031079800420798000b
:1029f40053079800640798000042eb00044f7800e6
:102a04000002eb00140798004e429000e84f520079
:102a1400030036000082eb008082eb00eb003700fd
:102a24004e4290000482fb004222dd000402e800d2
:102a34004322dd00cfa2de000400be00690c0700c3
:102a4400004278000482fb006f026200e20f520031
:102a540002003200e40f520004003a004e029000db
:102a6400e00f52000400320006003700b4ff2f00cc
:102a7400f5ff2f00d500370024ff2f00f5ff2f00ae
:102a8400d20037005e0290001402be00e00f520034
:102a9400e08f5a0003003a0044ff2f00f5ff2f0097
:102aa400ca0037006e029000e00f520003003a00a3
:102ab40054ff2f00f5ff2f00c40037004e42900052
:102ac4000482fb004222dd000402e8004322dd0010
:102ad4000430b000cfa2de000400be00410c0700a9
:102ae40000427800044f780024c4b3009e4278006a
:102af40084cf52000700320024c2b3009e42780003
:102b040084cf52000300320094ff2f00f5ff2f0002
:102b1400ae0037004e4290000482fb004222dd00ea
:102b24000402e800c322dd0004c020000482420045
:102b3400cfa2de00430020005e0190000400be002e
:102b44000e0d07006e0290004822de000443780058
:102b54004e4290000482fb004222dd000402e800a1
:102b6400c322dd000400210004824200cfa2de0063
:102b7400064178000400be00620c07006e0290005b
:102b8400044378004e4290000482fb004222dd00a0
:102b94000402e800c322dd00041021000482420084
:102ba400cfa2de00064178000400be00550c0700e9
:102bb4004e4290000482fb004222dd000402e80041
:102bc400c322dd0004f0210004824200cfa2de0013
:102bd4000400be00030c0700004278000482fb00de
:102be4004a22dd0014079800ce0290001e029000d5
:102bf400848f5200040036001e029000440798009f
:102c040001003700000000004e409000380d07001e
:102c140000027800140798004e4290000482fb00e2
:102c24004222dd000402e8004322dd000430b0004b
:102c3400cfa2de000400be00ea0b070000427800c9
:102c4400e04f520003003a00c4ff2f00f5ff2f00ad
:102c54005e0037004e4290000482fb001500200005
:102c6400042add008402780084cc8000048262009f
:102c7400e00f520006003200ce0290001e029000c7
:102c8400848f5200020036006022b8004f003700e3
:102c9400ce0290001e029000848f5200d9ff3e00a5
:102ca4004e019000be0090004e409000a80d070019
:102cb4004e4290000482fb004222dd000402e80040
:102cc4004322dd000410b000cfa2de0002c2b30034
:102cd4000400be000b0c0700000000004e429000f0
:102ce4000482fb004222dd000402e8004322dd00ee
:102cf4000410b000cfa2de000400be00b90b070030
:102d040000427800e04f5200f4ff3a00010037001f
:102d1400000000004e4290000482fb004222dd00cd
:102d24000402e8004322dd000420b000cfa2de004c
:102d34000400be00ab0b0700004278007f4f620026
:102d44009e4278000582fb0070026200e00f520090
:102d54000d0032004e4290000482fb004222dd004e
:102d64000402e8004322dd000420b000cfa2de000c
:102d740002c1b3000400be00e20b07004e02900043
:102d840005002000110037009e4278000582fb00f8
:102d940068026200e00f5200ddff32004e429000f4
:102da4000482fb004222dd000402e8004322dd002d
:102db4000420b000cfa2de0082c0b3000400be0035
:102dc400d00b070034ff2f00f5ff2f000400be00d6
:102dd4000080fa00000006001600fa00404f980038
:102de40071079800020f9800130f9800240f9800a1
:102df4000002eb00040f78004e4a9000e84f5200a6
:102e0400030036000082eb008082eb00a001370053
:102e14004e4a90000482fb004222dd000402e800d6
:102e24004322dd00cfa2de000400be006d0b0700cc
:102e340000427800244798002e4290000482fb0050
:102e44006f026200e20f520002003200e40f5200ef
:102e540004003a000e0a9000e00f52000400320011
:102e640006003700b4ff2f00f5ff2f00880137005c
:102e740024ff2f00f5ff2f00850137004e4a9000f4
:102e84000482fb00cfa2de000402420085824a00d5
:102e9400469921000602420014027800e00f520015
:102ea40027003a0001003700000000004e4890005f
:102eb400db0c070000027800040f78004e4a9000f3
:102ec4000482fb004222dd000402e8004322dd000c
:102ed4000430b000cfa2de000400be00410b0700a6
:102ee40000427800e04f520003003a00c4ff2f0074
:102ef400f5ff2f00660137004e4a90000482fb0064
:102f040015002000042add008402780084cc8000af
:102f140004826200e00f5200050032001e027800b5
:102f2400e00f520002003a006022b8005801370056
:102f34001e027800e00f5200dbff320000000000a8
:102f44004e4a90000482fb00cfa2de00469a210084
:102f5400840243000042eb00844a78002e42900031
:102f64000482fb0067026200e20f52000300320099
:102f7400e40f520082003200f70037004e4a9000fe
:102f84000482fb00cfa2de000402420085824a00d4
:102f9400469921000602420014027800e00f520014
:102fa4005c003a006302470082002000840078003d
:102fb4004e4890004a0d07004e4a90000482fb00e0
:102fc4004222dd000402e8004322dd000410b000c8
:102fd400cfa2de0002c4b3000400be00490b070008
:102fe400000000004e4a90000482fb004222dd00f3
:102ff4000402e8004322dd000410b000cfa2de008a
:103004000400be00f70a070000427800e04f5200b7
:10301400f4ff3a003e4290009e0a9000844a7800f1
:103024001e0a90008402e8004e429000844a780010
:103034001e0a90008482e8005e429000844a780070
:103044001e0a9000e30242006e429000844a780017
:103054007e4290008482fb002e0a9000050a7800cc
:103064002e0a900014027800c822dd000e4a900057
:103074000482fb00848242002e0a9000050a780034
:103084004e4a90008482fb001e4a90000483fb0099
:10309400612ab9000402420085824a00479921004e
:1030a40007024200060a78004e4a90008483fb001f
:1030b4004e4a90000482fb00cfa2de0004024200cc
:1030c40085824a00469921000602420014027800d3
:1030d400c822dd002e4a90000482fb0004834200d3
:1030e400613ab9000402420085824a0047992100ee
:1030f40007024200060a78004e4a90000482fb0050
:10310400cfa2de00469a21008402430004c8b30023
:10311400844a78004e4a90000482fb00cfa2de006d
:103124000402420085824a004699210006024200b8
:10313400940278000e0a9000848f52000300360037
:103144000e0a9000040f7800080037004e4a9000e1
:103154000482fb00cfa2de000402420085824a0002
:103164004699210006024200140f78001e017800df
:10317400fe0090004e489000d90c070082003700f2
:103184004e4a90000482fb00cfa2de0004024200fb
:1031940085824a0046992100060242001402780002
:1031a400e00f520051003a00630247002200200061
:1031b400840078004e489000c90c07004e4a9000e5
:1031c4000482fb004222dd000402e8004322dd0009
:1031d4000410b000cfa2de0002c4b3000400be009d
:1031e400c80a0700000000004e4a90000482fb0059
:1031f4004222dd000402e8004322dd000410b00096
:10320400cfa2de000400be00760a07000042780068
:10321400e04f5200f4ff3a004e4a90008482fb00d3
:103224003e4290000483fb00612ab900040242007c
:1032340085824a004799210007024200060a780065
:103244004e4a90008483fb004e4a90000482fb00a7
:10325400cfa2de000402420085824a004699210082
:103264000602420014027800c822dd004e4290009b
:103274000482fb0004834200613ab9000402420064
:1032840085824a004799210007024200060a780015
:103294004e4a90000482fb00cfa2de0004024200ea
:1032a40085824a0046992100060242009402780071
:1032b400a45e2000848f5200050036004e48900022
:1032c40083fa070074c12f00f5ff2f007000370048
:1032d4004e4a90000482fb00cfa2de00469a2100f1
:1032e4008402430004c8b300844a78004e4a900024
:1032f4000482fb00cfa2de000402420085824a0061
:103304004699210006024200940278000e0a9000b9
:10331400848f5200030036000e0a9000040f7800d8
:10332400080037004e4a90000482fb00cfa2de0062
:103334000402420085824a004699210006024200a6
:10334400140f78001e017800fe0090004e48900093
:10335400630c07000c0037009e0078004e48900074
:10336400b90c07004e4a90000482fb00cfa2de0095
:103374000402420085824a00469921000602420066
:103384001e0a7800000000004e4a90000482fb00f0
:103394004222dd000402e8004322dd000410b000f4
:1033a400cfa2de0002c4b3000400be00550a070029
:1033b400000000004e4a90000482fb004222dd001f
:1033c4000402e8004322dd000410b000cfa2de00b6
:1033d4000400be00030a070000427800e04f5200d8
:1033e400f4ff3a004e4a90008483fb004e4a90005a
:1033f4000482fb00cfa2de000402420085824a0060
:103404004699210006024200140278001e0352006d
:10341400613ab9000402420085824a0047992100ba
:1034240007024200060a78004e4a90000482fb001c
:10343400cfa2de000402420085824a0046992100a0
:103444000602420014027800e00f52000e0032001f
:103454004e4a90008483fb004e4a90000482fb0095
:10346400cfa2de00469a21000402430014427800f1
:10347400044378000604a000613ab900479a210089
:1034840004824300064a78001e02780005002000ea
:103494000400be000080fa00000006000800fa00e4
:1034a400881f780020479800210798003207980069
:1034b4000042eb00044f78002e429000e84f520087
:1034c4000200360000c2eb009e0037002e0290007e
:1034d400050020007600200007002000860f52001f
:1034e400878f5a0094003e0004060100070037004d
:1034f400230037002b0037003a003700490037001b
:103504005c003700690037007d0037003e02900000
:10351400144f78001e427800e14f520009003a002f
:103524002e4290000482fb0015002000042add00d6
:103534008402780084cc80000482720084cc8800e9
:103544007f0037001e427800e04f52000a003a0024
:103554002e4290000482fb0015002000042add00a6
:103564000482ea008402780084cc80000482620031
:1035740084cc88007200370064cfb3007100370038
:10358400be02900086cc80002e4290000482fb0094
:103594000432de000442780061426200844a78000a
:1035a400670037003e0490002e4290000482fb0026
:1035b4004222dd000402e800c322dd0004f0210001
:1035c40004824200cfa2de000400be008509070089
:1035d400004278000482fb004a22dd00040c7800db
:1035e400570037003e0490002e4290000482fb00f6
:1035f4004222dd000402e800c322dd0004e02100d1
:1036040004824200cfa2de000400be007509070058
:10361400004278000482fb004a22dd00040c78009a
:10362400470037003e02900014427800ff4f5200da
:103634000200360064cfb300420037003e0290001f
:10364400144278007f4362002e4290000482fb0003
:103654004222dd000402e8004322dd000420b00021
:10366400cfa2de00064178000400be00a5090700d1
:10367400330037003e0490002e4290000482fb0089
:103684004222dd000402e8004322dd000420b000f1
:10369400cfa2de000400be005209070000427800f9
:1036a4007f426200044c7800250037003e029000ff
:1036b40014427800ff4f52000200360064cfb3007a
:1036c400200037003e029000144278007f436200dd
:1036d4002e4290000482fb004222dd000402e80036
:1036e400c322dd0004c0220004824200cfa2de0017
:1036f400064178000400be0082090700100037006c
:103704003e0490002e4290000482fb004222dd0021
:103714000402e800c322dd0004c022000482420047
:10372400cfa2de000400be002e090700004278008c
:103734007f426200044c780064cfb300010037007c
:1037440014c0b300044078004f0478000080fa00ed
:10375400000006000600fa00004f780011079800e8
:10376400220798001e427800e84f520002003600fb
:1037740000c2eb00e90037001e0290006123b8008c
:103784000082eb008082eb000602420087824a003e
:103794006600200007002000860f5200878f5a0021
:1037a400db003e000406010006003700130037006a
:1037b400200037003d0037004a003700670037001b
:1037c400b60037002e029000144378009e42780021
:1037d4000582fb004222dd000402e800c322dd0072
:1037e4000460210004824200cfa2de00064178007a
:1037f4000400be0043090700c70037002e029000f2
:10380400144378009e4278000582fb004222dd00ca
:103814000402e800c322dd000450210004824200b7
:10382400cfa2de00064178000400be00350907007f
:10383400b90037002e029000140278004822de00fe
:10384400044378009e4278000582fb004222dd009a
:103854000402e800c322dd000420210004824200a7
:10386400cfa2de00064178000400be00250907004f
:103874002e02900014027800044378009e427800df
:103884000582fb004222dd000402e800c322dd00c1
:103894000430210004824200cfa2de0006417800f9
:1038a4000400be00170907009b0037002e03900098
:1038b4009e4278000582fb004222dd000402e800fb
:1038c400c322dd0004c0200004824200cfa2de0037
:1038d40043002000060178000400be00a709070089
:1038e4008d0037002e029000140278004822de007a
:1038f400044378009e4278000582fb004222dd00ea
:103904000402e800c322dd00040021000482420016
:10391400cfa2de00064178000400be00f9080700cb
:103924002e02900014027800044378009e4278002e
:103934000582fb004222dd000402e800c322dd0010
:103944000410210004824200cfa2de000641780068
:103954000400be00eb0807006f0037009e427800a9
:103964000582fb004222dd000402e8004322dd0060
:10397400cfa2de000400be009a08070000427800cf
:103984000482fb006f026200e10f52000200320069
:10399400b4cfb300610037009e4278000582fb007b
:1039a4004222dd000402e800c322dd0004f022000c
:1039b40004824200cfa2de000400be008908070092
:1039c40000427800e04f520002003200e4cfb3001e
:1039d400520037009e4278000582fb004222dd003f
:1039e4000402e8004322dd000410b000cfa2de0090
:1039f40022c2b3000400be00c20807001a00370048
:103a04009e4278000582fb004222dd000402e800a9
:103a14004322dd000420b000cfa2de000400be007b
:103a240070080700004278000482fb00680262000c
:103a3400e00f52000c0032009e4278000582fb0029
:103a44004222dd000402e8004322dd000420b0002d
:103a5400cfa2de0082c0b3000400be00a9080700a4
:103a640034cfb3002d0037009e4278000582fb005e
:103a74004222dd000402e8004322dd000410b0000d
:103a8400cfa2de000400be00560807000042780002
:103a9400e04f5200daff3a001f0037009e427800e0
:103aa4000582fb004222dd000402e8004322dd001f
:103ab400cfa2de000400be004a08070000427800de
:103ac4000482fb006f026200e10f52000200320028
:103ad400b4cfb300110037002e02900014437800d5
:103ae4009e4278000582fb004222dd000402e800c9
:103af400c322dd0004f0220004824200cfa2de00d3
:103b0400064178000400be007e080700020037006a
:103b140064cfb3000100370014c0b3000440780040
:103b24000080fa00000006000600fa00889fbe002c
:103b3400004f780011079800220798001e42780071
:103b4400e84f52000200360000c2eb00ed003700df
:103b54001e02900005002000c6002000070020007f
:103b6400860f5200878f5a00e3003e0004060100ce
:103b74000c003700190037002600370033003700e7
:103b84004900370056003700db003700710037006a
:103b94008e0037009200370096003700a2003700ed
:103ba400bd0037002e0490009e4278000582fb0081
:103bb4004222dd000402e8004322dd00cfa2de0041
:103bc4000400be00070807000042780005cfb300d8
:103bd40005426200044c7800c90037002e049000ae
:103be4009e4278000582fb004222dd000402e800c8
:103bf400c322dd000460210004824200cfa2de0063
:103c04000400be00f707070000427800044c780067
:103c1400bb0037002e0490009e4278000582fb0012
:103c24004222dd000402e800c322dd00045021002a
:103c340004824200cfa2de000400be00e9070700b0
:103c440000427800044c7800ad0037009e427800b2
:103c54000582fb004222dd000402e800c322dd00ed
:103c64000420210004824200cfa2de000400be0032
:103c7400dc0707002e0490009e4278000582fb00ba
:103c84004222dd000402e800c322dd0004302100ea
:103c940004824200cfa2de000400be00d107070068
:103ca40000427800044c78002e0390009e42780075
:103cb4000582fb004222dd000402e800c322dd008d
:103cc40004c0200004824200cfa2de004300200092
:103cd400060178000400be004e0807008800370083
:103ce4002e0490009e4278000582fb004222dd00f3
:103cf4000402e800c322dd00040021000482420023
:103d0400cfa2de000400be00b60707000042780020
:103d14000482fb00c824dd009e4278000582fb007b
:103d24004222dd000402e800c322dd000410210069
:103d340004824200cfa2de000400be00a9070700ef
:103d4400004278000482fb0004824400040c7800e2
:103d54006b0037009e4278000582fb004222dd00a2
:103d64000402e8004322dd00cfa2de000400be000e
:103d74009c070700004278000482fb006f02620087
:103d8400e10f520002003200b4cfb3005d003700ef
:103d94002e0490009e4278000582fb004222dd0042
:103da4000402e800c322dd0004f022000482420081
:103db400cfa2de000400be008a070700004278009c
:103dc4000482fb00040c78004d0037002e049000a0
:103dd4001e407800c608070000027800040c780032
:103de4002e0490001e4078000d09070000027800a0
:103df400040c78002e0490009e4278000582fb009b
:103e04004222dd000402e8004322dd000430b00059
:103e1400cfa2de000400be00720707000042780053
:103e2400044c7800360037009e4278000582fb007f
:103e34004222dd000402e8004322dd00cfa2de00be
:103e44000400be006707070000427800e14f5200fb
:103e540006003a002e0490001e407800f008070087
:103e640000027800040c7800250037002e0390002f
:103e74009e4278000582fb00cfa2de0004024200cd
:103e840085824a0047992100070242001402780003
:103e9400040b78001a0037009e4278000582fb006c
:103ea4004222dd000402e8004322dd00cfa2de004e
:103eb4000400be004b070700004278000482fb00a8
:103ec4006f026200e10f520002003200b4cfb3006f
:103ed4000c0037002e0390009e4278000582fb0000
:103ee400cfa2de00479a21000482430014427800e6
:103ef400044b780002003700e4cfb3000100370020
:103f040014c0b300044078004f04be000080fa00df
:103f1400000006000000fa000080fa00000006001d
:103f24000000fa000080fa00000006000000fa0019
:103f34000080fa00000006000000fa000080fa0089
:103f4400000006000400fa00008fbe001e02be003e
:103f5400e00f5200e08f5a000200320014002000eb
:103f6400010037000002eb0014427800044078009e
:103f74000080fa00000006000600fa00008fbe0070
:103f8400424798001e02be00e00f5200e08f5a0024
:103f94000200320014002000010037000002eb0090
:103fa400ce429000054a78000080fa000000060026
:103fb4000000fa000042eb00044078000080fa00a0
:103fc400000006000200fa00004f78000080fa00aa
:103fd400000006000400fa00000f780011079800a2
:103fe4001e027800e00f5200030032001e0290000f
:103ff400e00f520005003a00c4f82100a4cd880067
:1040040024f92100b4cd8800040037001e02780092
:10401400a4cd88001e029000b4cd88000080fa0070
:10402400000006000400fa00000f78001107980051
:104034001e027800e00f5200030032001e029000be
:10404400e00f520005003a0084f92100c4cd880035
:10405400e4f92100d4cd8800040037001e02780062
:10406400c4cd88001e029000d4cd88000080fa00e0
:10407400000006000400fa00000f78001107980001
:104084000000000065cd800004102000048262005e
:10409400e00f5200fbff32001e027800e00f5200d6
:1040a400030032001e029000e00f520005003a00a7
:1040b40044fa2100e4cd8800e4fb2100f4cd88001b
:1040c400040037001e027800e4cd88001e02900030
:1040d400f4cd88000080fa00000006000400fa0015
:1040e400000f7800110798000000000065cd8000e3
:1040f4000420200004826200e00f5200fbff320023
:104104001e027800e00f5200030032001e029000ed
:10411400e00f520005003a00a4fd2100e4cd880020
:1041240044fe2100f4cd8800040037001e0278000c
:10413400e4cd88001e029000f4cd88000080fa00cf
:10414400000006000a00fa00889fbe0030079800ad
:10415400410798000042eb00044f78000002eb0096
:10416400140798000002eb00240798003e02900018
:1041740005002000f600200007002000860f5200f2
:10418400878f5a0098003e00040601000f00370094
:1041940010003700230037001d00370026003700c9
:1041a4002a0037002e0037003d0037004b0037004f
:1041b40067003700680037006b0037008c00370059
:1041c4006d003700720037007c003700c200070022
:1041d400880037004e029000e00f520005003200c4
:1041e4004e029000140798001e02900068024200dc
:1041f40024079800ae0290001e029000850078000b
:1042040004007800ea000700004278007a003700d2
:104214004e02900014027800040078005001070058
:10422400740037004e04900060010700000278001b
:10423400040c78006f0037004e02900014027800de
:1042440004007800780107006a0037004e049000eb
:104254008601070000027800040c7800650037002e
:104264004e029000140278004822de0004427800d6
:10427400044178000030210001002000a10607005d
:104284004e02900014027800044278000441780041
:1042940000402100010020009a0607005500370065
:1042a4004e04900000302100010020004d0607005c
:1042b400004278000482fb00c824dd000040210095
:1042c4000100200047060700004278000482fb003a
:1042d40004824400040c780046003700ce029000ab
:1042e400e49a210014427800844a78004e02900037
:1042f4008402e800f49a210014427800844a780089
:104304004e0290008482e800049b2100144278004d
:10431400844a78004e029000e3024200149b21007c
:1043240014427800844a78004e029000e40242006d
:10433400249b210014427800844a78004e029000a5
:10434400e50242000042eb00844a7800290037006d
:104354008c010700270037004e029000040078000b
:10436400a0010700230037004e02900004007800eb
:10437400c90107001f0037004e0290001442780064
:10438400044078002f020700004278001a0037002a
:104394006701070000427800044f78001e4278004d
:1043a400e14f420002003a0000c2eb001200370065
:1043b4004e0290001e4a78000e00370049010700a3
:1043c40000427800044f78001e427800e14f42001a
:1043d40002003a0000c2eb00070037004e029000d2
:1043e4001e4a78000300370000c2eb0002003700c9
:1043f400000000000042eb00044078004f04be00bf
:104404000080fa00000006000400fa00881f78000b
:10441400000f7800110798001e02780005002000a4
:104424005600200007002000860f5200878f5a0094
:1044340022003e0004060100050037000800370092
:104444000b00370010003700140037001700370046
:104454001e0290000400780036020700190037009d
:104464001e02900004007800640207001500370063
:104474001e029000140278000400780091020700e4
:1044840000427800100037001e049000a6020700c6
:1044940000027800040c78000a0037001e02900025
:1044a40004007800a8020700060037001e029000ee
:1044b40004007800bd0207000200370000c2eb00d0
:1044c400010037000042eb00044078004f047800fc
:1044d4000080fa00000006001200fa006c02470097
:1044e40063002000040178000090200001002000f7
:1044f40048060700430020000e0178000010200049
:104504000100200043060700640247004300200026
:104514000401780000502000010020003d0607003f
:1045240068024700430020000401780000f02000e6
:10453400010020003706070002c8b3006000b8007d
:10454400f00507006000b800a60507006c024700ec
:104554006300200004017800009020000100200086
:1045640086060700430020000e017800001020009a
:104574000100200081060700640247004300200078
:104584000401780000502000010020007b06070091
:1045940068024700430020000401780000f0200076
:1045a40001002000750607000080fa0000000600e4
:1045b4000600fa0010079800210798000042eb005b
:1045c40014479800c4ff07001e029000e00f520039
:1045d4002e0032000042eb00144798000042eb002a
:1045e400044f78000a0037001e4278000402fb00e2
:1045f400cfa2de001e039000040243009442780020
:104604001e42900004c24200144798001e4fe80066
:104614001e427800e74f5200f3ff34001e42900020
:10462400f04f52000200340000c2eb004900370092
:104634000042eb00044f7800110037001e4278005e
:104644000402fb00cfa2de001e039000040243001c
:10465400144378001e02fb004222dd000402e8003d
:10466400c322dd0004f0210004824200cfa2de0058
:10467400064178000400be00a20507001e4fe800b2
:104684001e427800e74f5200ecff34002e029000e7
:10469400e00f52002e0032000042eb001447980055
:1046a4000042eb00044f78000a0037001e427800f5
:1046b4000402fb00cfa2de002e039000040243009c
:1046c400944278001e42900004c2420014479800ad
:1046d4001e4fe8001e427800e74f5200f3ff3400fb
:1046e4001e429000f04f52000200340000c2eb0062
:1046f400180037000042eb00044f78001100370027
:104704001e4278000402fb00cfa2de002e039000bc
:1047140004024300144378001e02fb004222dd0021
:104724000402e800c322dd0004e021000482420008
:10473400cfa2de00064178000400be007105070028
:104744001e4fe8001e427800e74f5200ecff340091
:104754000042eb00044078000080fa0000000600ec
:104764000400fa00100798001e029000044f78001d
:104774001e0290004822de001447980004cfb300c4
:104784001e42620004417800005021000100200014
:104794005c0507001e41900000702100010020000c
:1047a400580507000080fa00000006000400fa0023
:1047b4000042eb00044f78000042eb0014479800dd
:1047c4000002eb00140798000050210001002000b3
:1047d400040507000042780005cfb300054f6200ce
:1047e4000070210001002000fe0407000042780050
:1047f400144798001e4290000482fb00140798009e
:104804001e029000c822dd001e4378000682fb00d1
:1048140004824200140798001e02900004007800ed
:104824000080fa00000006000400fa001007980057
:104834001e029000044f78001e0290004822de0001
:10484400144798001e4178000060210001002000f8
:104854002c0507001e41900000802100010020006b
:10486400280507000080fa00000006000400fa0092
:104874000042eb00044f78000042eb00144798001c
:104884000002eb00140798000060210001002000e2
:10489400d404070000427800044f7800008021000f
:1048a40001002000cf04070000427800144798005c
:1048b4001e4290000482fb00140798001e02900020
:1048c400c822dd001e4378000682fb0004824200f9
:1048d400140798001e029000040078000080fa007b
:1048e400000006000200fa0000e02200010020009f
:1048f400bc040700004278000482fb0061026200ed
:1049040004427800e04f52000300320014c0b300a8
:10491400044f7800020037000042eb00044f780097
:104924001e427800044078000080fa00000006006f
:104934000200fa000042eb00044f780000e022007d
:1049440001002000a7040700004278008482fb00d5
:104954000403200004826200e00f520003003200ce
:1049640014c0b300044f7800020037000042eb008b
:10497400044f78001e427800044078000080fa005a
:10498400000006000200fa0000e0220001002000fe
:104994009404070000427800044f78001e74a100bc
:1049a4001e41780000e0220001002000d504070029
:1049b40000e02200010020008a0407000042780081
:1049c400044f780004c8b3001e4f72001e417800e3
:1049d40000e0220001002000ca0407000080fa0061
:1049e400000006000400fa00100798000042eb00e3
:1049f400044f78001e02900014427800e14f5200e8
:104a040003003a0004c4b3001e4f720002003700d2
:104a1400f4cbb3001e4f62001e02900014429000bb
:104a2400e14f520003003a0084c3b3001e4f7200ea
:104a3400120037001e02900034429000e14f5200f1
:104a440009003a001e02900024429000e14f5200f7
:104a540003003a001e427800784f720007003700c6
:104a64001e34a000050037001e029000244290006e
:104a7400e14f520001003a001e44a0001e4178009c
:104a840000e02200010020009e040700bdff070093
:104a94000080fa00000006000400fa0010079800e5
:104aa4000042eb00044f780000e0220001002000e7
:104ab4004c04070000427800044f78001e4278003e
:104ac4008482fb00040420000482620004f0a70036
:104ad4000402ea000402ea004f22de0004427800e5
:104ae4009e029000844a78001e4278008482fb0073
:104af400840320000482620005022000850f520016
:104b04000300320085032000850f520004003a00a0
:104b14009e02900014c0b300944298000400370031
:104b24009e0290000042eb009442980000000000b6
:104b34001e4278008482fb00840320000482620009
:104b4400f80f52000500320005022000850f5200c4
:104b540002003200f00f520004003a009e0290005e
:104b640014c0b300a4429800040037009e029000d1
:104b74000042eb00a4429800000000001e427800ae
:104b84008482fb008403200004826200f80f520038
:104b94000500320005022000850f52000200320099
:104ba400e80f520004003a009e02900014c0b300c3
:104bb400b4429800040037009e0290000042eb00cb
:104bc400b4429800000000000080fa0000000600d3
:104bd4000400fa001007980000e022000100200001
:104be4000004070000427800044f78009e427800d9
:104bf4000582fb006402620004f0a7000402ea00dc
:104c04000402ea004f22de00044278009e02900073
:104c1400b44298009e4278000582fb006202620062
:104c240004f0a7000402ea000402ea004f22de00b6
:104c3400044278009e029000a44298000080fa008a
:104c4400000006000400fa00204798000042eb0030
:104c5400044f780000e0220001002000e103070077
:104c640000427800044f78001e4278008482fb00e2
:104c74000404200004826200e00f520002003a00a3
:104c840000c2eb002800370074ccb3001e4f620052
:104c94002e429000e14f520003003a0004c3b300d7
:104ca4001e4f72000200370084c3b3001e4f72000f
:104cb4001e41780000e022000100200011040700da
:104cc40030ff070000e0220001002000c5030700b8
:104cd40000427800044f78002e429000e14f5200c9
:104ce40008003a001e4278008482fb00040320007e
:104cf40004826200e00f52000a0032000042eb001e
:104d0400090037001e4278008482fb0084032000df
:104d140004826200e00f5200020032000042eb0005
:104d24000100370000c2eb00044078000080fa0064
:104d3400000006000200fa00000f78001e0278004e
:104d4400630020000401780000902000010020008e
:104d54008a0407009e0278006e824200430020000d
:104d640004017800001020000100200083040700e3
:104d74009e0278006a824200430020000401780009
:104d840000502000010020007c0407009e027800ef
:104d940066824200430020000401780000f02000f5
:104da40001002000750407001e02780024529000c0
:104db400059c2100844a78001e0278003452900039
:104dc400159c2100844a78001e0278004452900009
:104dd400259c2100844a78001e02780054529000d9
:104de400359c2100844a78001e027800340a900021
:104df40024ce88000080fa00000006000200fa00b9
:104e0400000f78001e02780063002000040178007f
:104e14000090200001002000fe0307009e0278009d
:104e24006e8242004300200004017800001020003c
:104e340001002000f70307009e0278006a82420006
:104e440043002000040178000050200001002000ed
:104e5400f00307009e0278006682420043002000af
:104e64000401780000f0200001002000e90307009d
:104e7400049c2100144278009e027800a4529800f9
:104e8400149c2100144278009e027800b4529800c9
:104e9400249c2100144278009e027800c452980099
:104ea400349c2100144278009e027800d452980069
:104eb40025ce80001e027800350a98000080fa0092
:104ec400000006000400fa00100798000042eb00fe
:104ed400044f78009e02900054fc2f00048262006c
:104ee400e00f52000200320000c2eb000b0037005a
:104ef4006000b8003b03070000427800044f7800cc
:104f04001e029000044278001e4f72001e41780079
:104f14006000b8007b0307000042eb000440780007
:104f24000080fa00000006000000fa006000b800eb
:104f34002c030700004278000482fb000400780080
:104f44000080fa00000006000200fa00000f78005a
:104f54001e027800144278000441780000b0210059
:104f640001002000670307001e027800140290006d
:104f74004822de00044278000441780000902100b9
:104f8400010020005f0307001e0278001402900055
:104f9400044278000441780000a0210001002000b0
:104fa400580307000080fa00000006000200fa001f
:104fb400881f7800000f780000b021000100200055
:104fc40008030700004278009e027800844a7800b3
:104fd4000090210001002000020307000042780035
:104fe4000482fb004824dd0000a021000100200011
:104ff400fc020700004278000482fb000402440023
:10500400840278001e027800150298004f0478008c
:105014000080fa00000006000e00fa00889fbe001f
:105024008a9fbe00cb0207006022b80034079800b4
:10503400450798000002eb00140798000002eb00fb
:10504400240798000002eb00040f780020003700ca
:105054009e02780024032000110009008402d80075
:1050640001027800840378001e027800cfa2de00db
:105074000402420085824a00848fd2008582d200d5
:105084000402780004f0a1000abf23000b002000f2
:105094000403d0000a00d000000243004220a8000c
:1050a4008b824a004200a9004220ae004200a800c0
:1050b4000482d300a6018000050078000402780071
:1050c400a0018800070a7800a60188001e0fe800e6
:1050d400742025009e027800848f5200dcff340087
:1050e4006202070010c0b3007206070065aea80094
:1050f400244ea9005006200024070700244ea800cf
:1051040020f724002107070000000000147180002c
:1051140068026200e00f5200fcff320010c0b300ce
:10512400640607000201200003002000a1c4280037
:105134000004210054ed070004042100f1c0b30071
:105144000400780088060700c03d21000f0707000f
:1051540063020700a1b4220020b42200b1fb0700bf
:10516400e4b6220021b5220004007800dbfb07002e
:1051740041912100c09021000dfd07000090230003
:105184000100200097020700004278000506210074
:10519400844a780010c0b3004606070004062100c4
:1051a400144278000402fb00841f7800a4c5280080
:1051b400841f7800000421003ced0700e4875700b9
:1051c400000278000442780005042100844078003d
:1051d4000500780064060700c03d2100eb060700c7
:1051e40010c0b300330607001201200003002000a2
:1051f40091c628000004210023ed070004042100c7
:1052040001c1b3000400780057060700c03d210027
:10521400de060700a1862100f0002000c9fb07007c
:1052240000427800e14f42000b003a0010c0b30086
:1052340020060700c200200003002000a1c72800a8
:105244000004210010ed070004042100b1c0b300e4
:105254000400780044060700a48621001442780064
:10526400e04f5200ebff3200046ea80010c0b30000
:1052740010060700120120000300200061c8280066
:105284000004210000ed07000404210001c1b30063
:105294000400780034060700c03d2100bb06070067
:1052a4001a0107006a024700430020000401780045
:1052b40000f0200001002000d602070000ccb3005b
:1052c400fc0507005e4a90008483fb004e4a900070
:1052d4000483fb003e4a90008482fb002e4a900027
:1052e4000482fb00871f7800861f7800851f7800e2
:1052f400841f780074c92800841f780000042100ea
:10530400eaec0700ea8757000002780004427800bc
:105314000504210084407800050078001206070087
:10532400c03d21009906070001003700000000007d
:1053340082382100010021000040eb00fc0007003e
:105344000002be0034079800450798003e02900012
:10535400ce029000e00f5200e08f5a0007003d009b
:105364003e029000ce029000849fbe0034ca280002
:10537400841f780075ef0700e687570004002100ba
:105384009442780014c4b30084cf5200e7ff3a007b
:10539400044ea80014002100144278008482fb000b
:1053a40024002100144278000482fb004822dd001e
:1053b4000482720004c98800540021001442780059
:1053c4000482fb0005002000c023dd00060020004d
:1053d40044002100144278000480fb0001002000f6
:1053e400480add00c802de00850272004802dd00c2
:1053f4000403730085837300340021001442780091
:105404000482fb00050020000402730085827300ff
:1054140014c9880025c9880064002100144278005a
:1054240065922100844a78007400210014427800b7
:1054340075922100844a7800749221009442780085
:10544400649221001442780085407800044078007a
:10545400d605070014c9800025c980000401be00d8
:10546400007028003139200077ec07000002be00ec
:10547400040278000402e90044c3880044c38000a5
:10548400040078000a0607000002eb0024c3880029
:105494000002eb0034c388000000000034c3800025
:1054a400e00f5200fdff32002406210014c38800df
:1054b400050021000042eb00844a78000002eb0062
:1054c400f4c8880004c9800004024200e4c88800cb
:1054d400630037000002eb00040f78002600370059
:1054e400f4c880008402d1001e02780004824200c5
:1054f400050020000402420085824a00848fd20005
:105504008582d2000402780004f0a10008bf2300c1
:10551400090020008400d0000803d0000682400067
:105524004220a80089824a004200a9004220ae001d
:105534004200a8000482d30097018000050378008c
:10554400960188000000000004027800140378002b
:1055540097018800000000001e027800cfa2de0040
:105564000402420085824a00270621000702420005
:10557400060a78001e0fe800f43f20009e0278001f
:10558400848f5200d6ff3400048020001407980052
:10559400e5c88000f47f2000848f520002003e00a2
:1055a400e7c88000170798000002eb002407980062
:1055b400270037009e0290002e02900004835200c0
:1055c40017c380002e0290000500200004824300cf
:1055d40006017800840078000040eb007bf30700ac
:1055e4000002be0034079800450798003e02900070
:1055f400ce029000e00f5200e08f5a0008003d00f8
:105604000040eb00b2f107003e0290000400780075
:105614004f05be004f04be000080fa0000000600e3
:105624003e029000ae0290000482420024079800db
:10563400be029000f4c8800004824200f4c88800ce
:10564400e5c880003e02900004825200e4c888004d
:105654009e0290002e029000848f5200d5ff3a00e3
:1056640004c980000402420084027800f4c8800067
:10567400848f520097ff3e00044ea9002cff370090
:105684000000fa0065aea9000080fa0000000600e0
:105694000000fa0065aea8000080fa0000000600d1
:1056a4000400fa00204798002e4290000482fb0078
:1056b40044138800000000000413800061026200ab
:1056c400e00f5200fcff320044138000044f7800c6
:1056d4000080fa00000006000000fa000002eb005f
:1056e400441388000000000004138000610262007b
:1056f400e00f5200fcff32004413800004427800a3
:10570400044078000080fa00000006000000fa005f
:10571400819221000000eb003bfb070081922100f5
:105724001000200038fb07000080fa00000006008b
:105734000c00fa006047980041079800520798004f
:105744000002eb00040f78006e4290000482fb001c
:105754004222dd000402e8004322dd000430b000f0
:10576400cfa2de000400be001e0107000042780044
:105774000482fb00cfa2de00c60120000700200047
:10578400860f5200878f5a00aa003e0004060100cb
:1057940093003700a9003700a8003700a70037009e
:1057a400a6003700a5003700a4003700a300370087
:1057b400a2003700a1003700a00037009f00370087
:1057c4009e0037009d0037009c0037009b00370087
:1057d4009a00370099003700980037005e003700c0
:1057e4009600370095003700940037000500370015
:1057f4009200370091003700900037008f00370087
:10580400440037006e4290000482fb004222dd0017
:105814000402e8004322dd000420b000cfa2de0031
:105824000400be00ef000700004278000482fb0081
:105834006102620004427800e04f52001700320017
:1058440010c0b3009b040700a20020000300200046
:1058540081cb2800000421008beb07000404210005
:1058640091c0b30004007800bf04070004aea80090
:10587400048ea9006e4290000482fb004222dd00e7
:105884000402e8004322dd000420b000cfa2de00c1
:1058940012c0b3000400be001a0107006e4090005d
:1058a4005f02070000027800040f78001e027800ef
:1058b400e00f520015003200040420009e0278001c
:1058c400848f52000200360004042000040f780084
:1058d4001e017800ce0090006e40900097f3070000
:1058e4000002be0014079800250798001e029000cd
:1058f400ae029000e00f5200e08f5a0003003c001b
:105904001e029000ae02900055003700044ea9001c
:10591400510037006e40900048f2070000427800c2
:105924000402fb00cfa2de001407980025079800ac
:105934001e039000ae039000140020000500200018
:10594400840f5300858f5b003e0032001e029000de
:10595400ae0290004200370010c0b30055040700a7
:105964005e029000841f780024cc2800841f7800f5
:10597400000421004deb0700e48757000002780083
:105984000442780005042100844078000500780072
:1059940075040700048ea80004aea9006e409000b0
:1059a4001df10700004278000402fb00cfa2de00d4
:1059b40014079800250798001e039000ae0390007a
:1059c4001400200005002000840f5300858f5b0025
:1059d4001e0032001e029000ae029000200037002c
:1059e4008041eb005e01900011c0b3006e40900056
:1059f400ebef0700004278000402fb00cfa2de00b8
:105a040014079800250798006e4290000482fb005a
:105a1400050020001e039000ae039000840f530085
:105a2400858f5b000b0032001e029000ae029000d6
:105a34000b003700000000000700370000000000e2
:105a440005003700000000000300370000000000dc
:105a540001003700000000001400200005002000b1
:105a64000400be000080fa00000006000000fa00f6
:105a74000002eb00747388007473800074728800f1
:105a840074728000f4718800f4718000747188006d
:105a940074718000f4708800f47080007470880061
:105aa4002570800034fc2f0004826200247088007a
:105ab4000570800034fc2f000482620004708800aa
:105ac40030cea80030eea800b4030700204ea90091
:105ad40061aea900206ea8000080fa000000060054
:105ae4000000fa00e5348000f40f2c008482620088
:105af40004a0200004827200e4348800753680001b
:105b040004f82f0084826200d4072000048272000b
:105b14007436880061e2a9006302a80062a2a800aa
:105b24006322a800141380000400a0000410a00045
:105b340014138800141380000420a1000430a00072
:105b44000440a1001413880061e2a8000080fa0058
:105b5400000006000000fa00a4032000343a880084
:105b6400243a80000460a1000470a100243a880053
:105b7400253a800004fe2f0004826200243a880043
:105b84000002eb00443a880036002000840720001d
:105b9400a509200037742000844b7800854b7800d9
:105ba400864b780016002000640420007505200050
:105bb40027742000844b7800854b7800864b78004e
:105bc40000000000153a800004002700848262006f
:105bd40004002300848f5200faff3a000080fa0088
:105be400000006000600fa0010079800210798003c
:105bf400a4cd800004000100c4cd80000400010095
:105c0400f1cd80001e039000ae039000040020003c
:105c1400f50f20000600780007037800840378005d
:105c240005027800070060000402630005002000fc
:105c3400c022dd00040020000403be006102b8009d
:105c44000403730085837300403ade0005002000de
