:020000040000fa
:080000000002040000000000f2
:020000040000fa
:0400080024030000cd
:020000040000fa
:04000c002a030000c3
:020000040000fa
:0400100046030000a3
:020000040000fa
:0400140030030000b5
:020000040000fa
:0400180036030000ab
:020000040000fa
:04001c003c030000a1
:020000040000fa
:040020004a0300008f
:020000040000fa
:040024004203000093
:020000040000fa
:04002800420300008f
:020000040000fa
:04002c00420300008b
:020000040000fa
:040030004203000087
:020000040000fa
:04003400d8460000aa
:020000040000fa
:04003800420300007f
:020000040000fa
:04003c00420300007b
:020000040000fa
:040040004203000077
:020000040000fa
:040044004203000073
:020000040000fa
:04004800420300006f
:020000040000fa
:04004c00420300006b
:020000040000fa
:040050004203000067
:020000040000fa
:040054004203000063
:020000040000fa
:04005800420300005f
:020000040000fa
:04005c00f856000052
:020000040000fa
:040060004203000057
:020000040000fa
:040064004203000053
:020000040000fa
:04006800420300004f
:020000040000fa
:04006c00420300004b
:020000040000fa
:040070004203000047
:020000040000fa
:040074004203000043
:020000040000fa
:04007800420300003f
:020000040000fa
:04007c00420300003b
:020000040000fa
:040080004203000037
:020000040000fa
:040084004203000033
:020000040000fa
:04008800420300002f
:020000040000fa
:04008c00420300002b
:020000040000fa
:040090004203000027
:020000040000fa
:040094004203000023
:020000040000fa
:0400980048470000d5
:020000040000fa
:04009c00420300001b
:020000040000fa
:0400a0004203000017
:020000040000fa
:0400a4004203000013
:020000040000fa
:0400a800420300000f
:020000040000fa
:0400ac00420300000b
:020000040000fa
:0400b0004203000007
:020000040000fa
:0400b4004203000003
:020000040000fa
:0400b80042030000ff
:020000040000fa
:0400bc0042030000fb
:020000040000fa
:0400c00042030000f7
:020000040000fa
:0400c40042030000f3
:020000040000fa
:0400c80042030000ef
:020000040000fa
:0400cc0042030000eb
:020000040000fa
:0400d00042030000e7
:020000040000fa
:0400d40042030000e3
:020000040000fa
:0400d80042030000df
:020000040000fa
:0400dc0042030000db
:020000040000fa
:0400e00042030000d7
:020000040000fa
:0400e40042030000d3
:020000040000fa
:0400e80042030000cf
:020000040000fa
:0400ec0042030000cb
:020000040000fa
:0400f00042030000c7
:020000040000fa
:0400f40042030000c3
:020000040000fa
:0400f80042030000bf
:020000040000fa
:0400fc0042030000bb
:020000040000fa
:0401000042030000b6
:020000040000fa
:0401040042030000b2
:020000040000fa
:0401080042030000ae
:020000040000fa
:04010c0042030000aa
:020000040000fa
:0401100042030000a6
:020000040000fa
:0401140042030000a2
:020000040000fa
:04011800420300009e
:020000040000fa
:04011c00420300009a
:020000040000fa
:040120004203000096
:020000040000fa
:040124004203000092
:020000040000fa
:04012800420300008e
:020000040000fa
:04012c00420300008a
:020000040000fa
:040130004203000086
:020000040000fa
:040134004203000082
:020000040000fa
:04013800420300007e
:020000040000fa
:04013c00420300007a
:020000040000fa
:040140004203000076
:020000040000fa
:040144004203000072
:020000040000fa
:04014800420300006e
:020000040000fa
:04014c00420300006a
:020000040000fa
:040150004203000066
:020000040000fa
:040154004203000062
:020000040000fa
:04015800420300005e
:020000040000fa
:04015c00420300005a
:020000040000fa
:040160004203000056
:020000040000fa
:040164004203000052
:020000040000fa
:04016800420300004e
:020000040000fa
:04016c00420300004a
:020000040000fa
:040170004203000046
:020000040000fa
:040174004203000042
:020000040000fa
:04017800420300003e
:020000040000fa
:04017c00420300003a
:020000040000fa
:040180004203000036
:020000040000fa
:040184004203000032
:020000040000fa
:04018800420300002e
:020000040000fa
:04018c00420300002a
:020000040000fa
:040190004203000026
:020000040000fa
:040194004203000022
:020000040000fa
:04019800420300001e
:020000040000fa
:04019c00420300001a
:020000040000fa
:0401a0004203000016
:020000040000fa
:0401a4004203000012
:020000040000fa
:0401a800420300000e
:020000040000fa
:0401ac00420300000a
:020000040000fa
:0401b0004203000006
:020000040000fa
:0401b4004203000002
:020000040000fa
:0401b80042030000fe
:020000040000fa
:0401bc0042030000fa
:020000040000fa
:0401c00042030000f6
:020000040000fa
:0401c40042030000f2
:020000040000fa
:0401c80042030000ee
:020000040000fa
:0401cc0042030000ea
:020000040000fa
:0401d00042030000e6
:020000040000fa
:0401d40042030000e2
:020000040000fa
:0401d80042030000de
:020000040000fa
:0401dc0042030000da
:020000040000fa
:0401e00042030000d6
:020000040000fa
:0401e40042030000d2
:020000040000fa
:0401e80042030000ce
:020000040000fa
:0401ec0042030000ca
:020000040000fa
:0401f00042030000c6
:020000040000fa
:0401f40042030000c2
:020000040000fa
:0401f80042030000be
:020000040000fa
:0401fc0042030000ba
:020000040000fa
:0402000042030000b5
:020000040000fa
:0402040042030000b1
:020000040000fa
:0402080042030000ad
:020000040000fa
:04020c0042030000a9
:020000040000fa
:0402100042030000a5
:020000040000fa
:0402140042030000a1
:020000040000fa
:04021800420300009d
:020000040000fa
:04021c004203000099
:020000040000fa
:040220004203000095
:020000040000fa
:040224004203000091
:020000040000fa
:04022800420300008d
:020000040000fa
:04022c004203000089
:020000040000fa
:040230004203000085
:020000040000fa
:040234004203000081
:020000040000fa
:04023800420300007d
:020000040000fa
:04023c004203000079
:020000040000fa
:040240004203000075
:020000040000fa
:040244004203000071
:020000040000fa
:04024800420300006d
:020000040000fa
:04024c004203000069
:020000040000fa
:040250004203000065
:020000040000fa
:040254004203000061
:020000040000fa
:04025800420300005d
:020000040000fa
:04025c004203000059
:020000040000fa
:040260004203000055
:020000040000fa
:040264004203000051
:020000040000fa
:04026800420300004d
:020000040000fa
:04026c004203000049
:020000040000fa
:040270004203000045
:020000040000fa
:040274004203000041
:020000040000fa
:04027800420300003d
:020000040000fa
:04027c004203000039
:020000040000fa
:040280004203000035
:020000040000fa
:100400000ff521000ebe22000e0188000000000042
:10041000000020000000e000020032000001200087
:10042000200288000c000700205025000100200059
:100430000f000700000020000000e0000200320072
:100440000000020000000000883d020000000000e3
:100450000040da000000fe00801820000000e000ec
:1004600002003200002020009001880000000600f9
:10047000a1028800800078000000eb001a0037001d
:10048000e280400054a0b4009101ba00e280400034
:1004900054a0b4009102ba00e280400054a0b4001d
:1004a0000002eb00472bde00f507b200a601880032
:1004b000602ce10008003a000049eb000201e8006e
:1004c000020039003420ec0002f0a0008301e900b2
:1004d000f9ff3e00040037006128e100010032000e
:1004e0000082eb000b00070011c3ba001101ba0033
:1004f0000604e00003003a000200e000e0ff3a00da
:1005000000000600f607b200a6028800820078000c
:10051000f5ff370004d0a300e20f49001c003900aa
:10052000810278003549ba000201e8000200390072
:100530003420ec0002f0a0008301e9000f0032003b
:100540002549ba000201e800020039003420ec001d
:1005500002f0a0008301e900080032000400e0007e
:100560000600320015c9ba000201e8000200390095
:100570003420ec0002f0a0008301e9008180e80053
:1005800054a0b4000300e000e2ff3a0000000600bf
:100590009102ba00055978008301e900f7ff3200a3
:1005a000c82ade00055978008301e900f3ff320014
:1005b0000400e000f1ff320011d9ba00eeff37006d
:1005c0009e43040000000000964304000000000069
:1005d000c243040000000000a64304000000000025
:1005e000aa47040000000000824704000000000049
:1005f000b247040000000000b847040000000000fb
:10060000be47040000000000c447040000000000d2
:10061000ca47040000000000e24704000000000098
:10062000fe4704000000000006480400000000002f
:10063000a219040000000000c61904000000000018
:10064000e2190400000000000000fa00c028a90020
:10065000ffff37000000fa00c068a900ffff370065
:100660000000fa00c048a900ffff37000000fa00b0
:10067000c088a900ffff37000000fa00c0a8a90049
:10068000ffff37000000fa00ffff37000000fa000c
:10069000ffff37000000fa00ffff37000a00fa00f2
:1006a000e20f500020003e0070fa8000e10f500081
:1006b0000600320080232000452320002323200051
:1006c000042320000000e00004003a008022200003
:1006d00045222000232220000422200006002800ba
:1006e0001403630003003a000608780000002800a5
:1006f000140a700013a8a30001003a0013a0a00080
:1007000002007800050037001388a300feff3200c6
:100710003102fb00840a78000000e9000000e000dc
:10072000f9ff3a000800370033002000b3bf9f00f4
:10073000c0bf9f00d1bf9f00e2bf9f006a805700eb
:10074000e70807006fb99700020078000080fa0000
:10075000000006002800fa00889fbe008a9fbe00a5
:100760008c9fbe0007067800878669000c003b005e
:10077000030478008704780008f0a10009f0a100c4
:10078000840f5000858f5800860f5900890f5c0038
:10079000030033000cf0a20001003a000cf0a100ad
:1007a0009e0107006400e1005f003200780147000d
:1007b0006408e100610032006c0147007485570055
:1007c0003200be001201be003a04be001a05be008f
:1007d0001e039000be0a90008503530006003d00f2
:1007e0000004fd008104fd000205fd008305fd00fd
:1007f0008703ea00050378000df8a3000400320027
:1008000060041400e0841c0060051d00e0851d00ec
:100810006022b8007d0320000d38e1008006eb0067
:100820000b0039004433dd00f300b2008301730094
:1008300039003700848272000d027800e1066400fe
:100840008b85d1000a85d3008984d3000884d30026
:100850008703e900f7ff3b0008004000898048005b
:100860000a0149008b81490004003b006000100030
:10087000e080180060011900e08119000358a3000e
:10088000090032008d827200848272006102600071
:100890008301d1000281d3008180d3000080d30086
:1008a0000603e8001b0037000348a30017003a00c6
:1008b0000600e000170034000603e9000d00a30065
:1008c00000004800818048000201490083814900fe
:1008d0000348a3000f003a000600e00009003400be
:1008e0000603e90000004000818048000201490041
:1008f0008381490001003a000003eb000348a30094
:10090000f5ff32006022b8000200370084827200d6
:10091000618266001501070003f0a1000cf0a7003a
:1009200003f0a00051013700640147006408e100b2
:1009300002003a000df8a30049013a003200be005f
:100940001201be004901370003f0a200889fbe00db
:100950008a9fbe008c1f7800cd010700d4013300b0
:100960006450e1004f0032006420e1005200320088
:1009700003826c0007003b000905d0000306d0008d
:10098000820f54000c065d000200390002003200a4
:1009900089017800030678008582550004003d0037
:1009a0000003fd008103fd008502ea008b85420003
:1009b000840f720002003b0060001000e08018000d
:1009c0006011b8000005eb007a28e1000a00390048
:1009d00006007800c75ddd00f707b200878075006c
:1009e0002d003700828171000a01780061056000e6
:1009f0008180d1000080d3008502e900f9ff3b002f
:100a0000060440008784480002003b006004140094
:100a1000e0841c000988a300070032008a8171006d
:100a200082817100610164008904d1000884d300cf
:100a30008b05e800170037000978a30013003a007f
:100a40000b00e000130034008b05e90008044400ab
:100a500089844c000a4474000978a3000d003a0010
:100a60000b00e000070034008b05e9000804440097
:100a700089844c0001003a000b0020000978a30093
:100a8000f7ff32000001eb000200370082817100a5
:100a90000a017800430107000cf0a70001f0a00054
:100aa0008c0137006420e10002003a00838f6c0063
:100ab0008c0133000801be000200be008501370032
:100ac0002800fa00889fbe008a9fbe008c9fbe004f
:100ad00003866b00d10007006400e100440032008f
:100ae0006408e1004a0032006100e1004600320083
:100af0006108e10049003200ec0647006000b800e0
:100b00003d02be003d03be00f48657006011b800f0
:100b10003d04be003d05be007d0320000b003700f4
:100b20000000a0008d06e90013003200040242001c
:100b300085824a0006034b0087834b00000040007b
:100b40008180480002014900838149000802520067
:100b500089825a000a035b008b835b00f0ff3b0035
:100b60000802420089824a000a034b008b834b0033
:100b70008d06e900edff3a008482720086827200e1
:100b8000f707b200878272000100320015002000d2
:100b90001e0490003e0b900006035400e63fb00098
:100ba0000368a300070032000000a7000500a000b2
:100bb0008301d1000281d3008180d3000080d30063
:100bc0000603e8008301d1000281d3008180d300b5
:100bd0000080d3000002eb000482d2006300070013
:100be00003f0a1000cf0a70003f0a0009f00370065
:100bf000640247006408e100990032003400be003e
:100c00003401be00f6ff37006108e10094003200b5
:100c10006011b8006000b800f1ff370003ff270043
:100c200002002000fbff3700889fbe008a9fbe00a5
:100c30008c1f7800160107001d01330003866c002d
:100c40006450e1002e0032006420e10033003200e5
:100c50006150e1002f0032006120e10031003200dc
:100c600085855500eb07b00009002000080420002e
:100c7000050037000804440089844c000a00310054
:100c80000603430087834b000001530081815b0012
:100c9000f8ff33000203be000800a000080444006f
:100ca00089844c00f6ff3900c639dd0083017300ea
:100cb00001003200130020008904d1000884d30011
:100cc0000998a300050032000800a7000300a00057
:100cd0008904d1000884d3008b05e8008904d10081
:100ce0000884d3000001eb000281d200ad000700b0
:100cf00001f0a1000cf0a70001f0a000f500370002
:100d00006420e100f70032000801be000200be00ce
:100d1000f7ff37006120e100f20032006000b80008
:100d2000f3ff37000000200001f82700f0ff370034
:100d3000839f68000100e00002003d006000100099
:100d4000e08018000300e00002003d006001110097
:100d5000e0811900910107004f00e00002003b0014
:100d600060001000e080180000000600180020005d
:100d700057002000080453000d003d00060020002d
:100d800097fc2f000740e1001e00340084827200af
:100d9000610260008301d1000281d3008180d30011
:100da0000080d3000804e800f8ff3a004700200064
:100db0006104600005047400040464000d00320046
:100dc00061004000e080480060014900e081490086
:100dd00003b8a500070032000603e8006538e1000b
:100de00004003a008301d1000281d3008180d30046
:100df0000080d300f87f20000830e10003003500b8
:100e0000080378006000b8006011b8004433dd00ca
:100e1000f300b2008301730000000600680447007d
:100e20000294be000094be00fc0447008694be00fd
:100e30008494be000900780079010700080078005a
:100e40007701070099007800814f70000b003b008c
:100e50000800be00640107004f00b1000300370026
:100e6000f3ff2700f2ff2f006110b9004f06be000c
:100e70004f05be004f04be000080fa0000000600cf
:100e80001400fa00889fbe008a9fbe008c9fbe009f
:100e90000004be000205be00680047000a90be00c4
:100ea0000890be005e0107000070a7000bf0a100d3
:100eb0000bf8a30016003a009e0290003043200079
:100ec00080825200b0fe2f000028e1000d003c009f
:100ed000b0fc2f000028e1000d0034001e09900036
:100ee0008e0890007e0090000501b0000201d10044
:100ef0008180d3000080d3008502e800fbff3a0028
:100f0000daff37000100280000002000d7ff37007b
:100f10006000b800d5ff37000001be0047000700a1
:100f20000470a70003f0a10003f8a30013003a0027
:100f30006509b10010003200090035006928e100a0
:100f400002003500010028000000050000004000fc
:100f5000818048008502e900fcff3a00000006009d
:100f6000f88f4200050035008100d1000080d300d9
:100f70008502e800fcff3a00000006008000eb005c
:100f8000000005004f89de00820178004b01370028
:100f90004f89de0082017800580137006011b800e7
:100fa0006601370081002000618055000b003d0084
:100fb0000b00200061fe2f000100e1001d00340045
:100fc00082817100610164008904d1000884d3002a
:100fd0000000e800faff3a007100200061006400a0
:100fe0000300700002006000090032006104440048
:100ff000e0844c000988a500050032008b05e8005c
:101000006808e10002003a008904d1000884d30096
:10101000f20f20000258e10005003d00c75ddd0031
:10102000f907b2008980750008007800000006000a
:101030000bf827008b00780000000500c70ade00cf
:10104000f107b200f50fb20008003200e1cf420014
:10105000020032000170a00024000500810f700022
:10106000010032000408050044000500810f7000f3
:1010700002003a00140005008502e900000040006b
:1010800081c04800fcff3b000170a0002400050067
:101090000004be00e9ff07000003be000405be0017
:1010a0000200be00e5ff0700844f75000000060047
:1010b0000200be006450e100050036006420e1003b
:1010c000020036000968a30001003a000800be00d3
:1010d0000160a0004f0678004f05be004f04be001f
:1010e00000000600f0ff2f00f1ff2700f9ff370096
:1010f0002800fa00889fbe008a9fbe008c9fbe0019
:1011000003866b0045ff07000028a30064003a0037
:101110000128a30067003a000008a30062003a001b
:101120000108a30065003a001e009000be08900070
:1011300081064000ed3fb100f4805700ee019000c1
:10114000111ab8008e099000311bb8009e0990005a
:10115000311cb800511db800f48557004600070047
:10116000fe0190003a0007008b85e8003e00070072
:101170008e09900040000700ee0190003400070047
:101180008b85e800380007008e09900040000700ba
:101190009e0990001b18b800890440000a85480089
:1011a000fe019000340007008b85e800380007003e
:1011b000ee019000300007008e0990001b18b80067
:1011c000890440000a8548000a98a30008003a00f4
:1011d0000402420085824a0006034b0087834b00cd
:1011e00008044c0089844c000a054d008d06e90076
:1011f00084827200850273004c3add008502720021
:101200000100320015002000443ade001400b20054
:101210004538de00cb45dd000b007000c540de0028
:10122000cb4ddd008b8070004549de00cb55dd00e5
:101230000b017100c551de000d037800cbfe0700e5
:1012400003f0a1000cf0a70003f0a00007ff370097
:101250001b18b8008502400006834800e0834b005d
:1012600060044c00070037001b18b800060340005c
:1012700087834800faff37001b18b8008703400037
:1012800008844800e0844c0060054d000000060022
:101290001b18b8000804400089844800faff370092
:1012a0000108a300eefe3a005800be005801be003f
:1012b000e3ff37000008a300e9fe3a0009047800c4
:1012c000f9ff3700889fbe008a9fbe008c1f780000
:1012d0006fff070076ff330003866c006450e10067
:1012e000240032006420e100270032006150e10058
:1012f000220032006120e100210032008b85420093
:10130000eb07b1000134b800003ab800080442000d
:1013100089844a00013ab8000030b8008880400053
:1013200009014a00040033000000400081804800a9
:10133000020149008b05e900c909dd008301700045
:101340000100320013002000c814de004814dd0044
:101350004709de001200b200c808de0008847000f1
:1013600010ff070001f0a1000cf0a70001f0a000a1
:1013700058ff37006120e1005aff32000801be002b
:101380000200be00f7ff37006150e100fcff3a00a9
:1013900054ff37000001eb00c20037006022b800a4
:1013a000060220000000d0008180d2000482d2001a
:1013b0008582d2000000a0000202520083825a00ff
:1013c000030031000202420083824a000000a100b3
:1013d0000603e900f3ff3a0000000600efff0700f4
:1013e0000400be0000000600e48240001078a30064
:1013f00007003200640240001178a3003400be00f0
:101400001401be00040032000330a70000000600f3
:101410003500be001501be000330a000000006002c
:10142000800078005002be005003be004439de0048
:10143000f700b200f37f20000301610009003200d1
:101440000218e10016003a00850172008301730062
:10145000838173000008200015003a00400020003e
:1014600013003700850172008301730083817300cc
:1014700005003a0004a8be0006a8be001000200027
:101480000b0037000201e9000402420085824a0095
:1014900006034b0087834b000748a300f9ff320087
:1014a0000740a00004a8be0006a8be00200020003f
:1014b000800098009200980000000600881f7800c5
:1014c000030478000300e00007003d006000100006
:1014d000e080180060011900e081190002003b0063
:1014e00001f02d00030037001400070008f0a700ea
:1014f00003f0a0004f04780000000600881f780069
:10150000030478000300e00007003d0060001000c5
:10151000e080180060011900e081190002003b0022
:1015200001f02d00030037002f00070008f0a7008e
:1015300001f0a0004f04780000000600889fbe0064
:1015400000827000040271000482710024003200e5
:1015500036432000c50020008383cf000a003900f5
:101560000541b1008283cf00070039000541b10079
:101570008183cf00040039000541b1008083cf0092
:10158000010039000541b10085c353006022b80055
:10159000120032000a003b00848272006102600087
:1015a0008301d1000281d3008180d3000080d30069
:1015b0000603e8008743e800f7ff3a00070037001a
:1015c00000004000818048000201490083814900f9
:1015d0000603e9008743e900f9ff3a00e3fd07004d
:1015e0004f04be0000000600889fbe008a9fbe0018
:1015f0000082700004027100048271002600320033
:101600000004be000200be006011b8006b0920009b
:10161000950220000182cf000a0039000541b10087
:101620000082cf00070039000541b1000982cf00d8
:10163000040039000541b1000882cf0001003900e3
:101640000541b10005425200120032000a003b0081
:1016500082817100610164008100d1000080d300ab
:101660008984d3000884d3008b05e8000442e80095
:10167000f7ff3a00070037000804440089844c0053
:1016800000004800818048008b05e9000442e90021
:10169000f9ff3a0043fe07004f05be004f04be00ad
:1016a00000000600889fbe008a9fbe008c9fbe007f
:1016b000820578000004be0060fe07000800be003e
:1016c0006420e1000700390002003a00f1ff270022
:1016d000f0ff2f000160a0001202200002808800ad
:1016e000550037006120e10003003a000b00a7001d
:1016f00001f823005000370001f0a1000200210092
:1017000093642400500007000800be000400350068
:10171000b2fd2000930c24006e0007000004be0000
:101720000005eb000b00a6004f0dde0001f0a1004c
:101730000004be0032982f0023ea2300e1fe0700d8
:101740000001eb0003f023000b00a70003f82300c7
:101750007efc07003e0007000000a7000a00a20070
:101760000bfe07000b00e000030032000200200027
:1017700003f0230074fc070001f0a2000006be0085
:101780000200200093042400cefe07000801be00e2
:101790006efc0700809fbe000c00be0022a22a0043
:1017a000d3a72300c7fe07004f01be0067fc070058
:1017b0000004be0001f0a1000200200003982300f5
:1017c000210007000800be00190035000001be001e
:1017d000bcfe07000006be00b2c52900e36223007c
:1017e000b8fe070022222b00f3942b0057fc0700c1
:1017f0000c01be00b3fe0700e273280083c0230083
:1018000052fc07000c01be00aefe070042aa2a00ef
:10181000a3e22b004dfc07000c01be00a9fe07004f
:101820000801be00a7fe07000801be0047fc070034
:101830000a00a70001f0a2004f06be004f05be003f
:101840004f04be00000006001400200072003700a4
:101850000001be00f9fd07000470a70003f0a1001d
:101860006509b100160032000d0035006828e1005e
:1018700006003500f0ff2f00f1ff27000300e00015
:1018800013003b000100280000000500000040009c
:10189000818048008502e900fcff3a00080037001b
:1018a000f88f420002003c008000eb0000000500c1
:1018b0008100d1000080d3008502e800fcff3a00df
:1018c0000300e00002003b0060001000e080180010
:1018d000000006000400200000003700889fbe00c2
:1018e0008a9fbe008c1f78004f26dd00e8fd0700b0
:1018f000effd33006120e100430032006250e1005f
:1019000041003e003e0039006420e1003c0032000e
:10191000058255000f003b000402e80038003a0041
:10192000800f5300818f5b00350034000800be003b
:1019300003f0a10001f0a60003f0a0000cf0a70046
:1019400002fc0700e3fd37000603430087834b00da
:101950000c4646000005530081855b000200330001
:101960000a03be000c00a0000402e900f6ff3b00e1
:10197000850578000602430087824b0004003a0088
:101980006000b80009f0a70001f0a000d1fd370009
:101990000002520081825a000704e0000400330074
:1019a0000603430087834b008b05e900faff3700ed
:1019b000090578000604be000203be006011b800ed
:1019c00078fd0700e00f5200e08f5a000700350055
:1019d00002003c000c08a300040032000601be0017
:1019e00003f0a0000cf0a700d8fb07000a856800f0
:1019f00001f0a1000af0a70001f0a000b5fd37003a
:101a00000800be00b3fd3700100220000cf0a60055
:101a100000808800b3fd3700889fbe008a9fbe000b
:101a2000841f78009afd07004f00780011003300f2
:101a3000f0ff2f00838f6c0006003b00040565005b
:101a40000a00a7000800370009f0a60010002000d7
:101a500008003700820f5400838f5c0003003900b8
:101a60001000200001003e000000200009f0a70047
:101a70000000ea004f05be004f04be000000e00079
:101a800000000600889fbe000004be00050037006d
:101a90000000fb008900780033000700e10f4000e0
:101aa00004003200384078000004e000f8ff3a00fb
:101ab0000000eb004f04be0000000600881f780005
:101ac00081ed2100efff07000004780081ed210087
:101ad000a000200024000700080078004f047800d0
:101ae000000006008000eb0000fa880011fa880070
:101af00011c0b300e0f321000148780000000600a7
:101b0000e0f321001004e00002003a001000200081
:101b1000f4ff0700d2e62400631c240000fa8000d2
:101b200011fa8000f0030700920323000300200055
:101b3000000141008181490002fa880013fa8800ff
:101b40000300780000f0a100000006000000fa0089
:101b500068815700cfb8970080ed21004e00070044
:101b60000080fa0000000600889fbe000104780093
:101b7000b80090008084eb000118a3003a00320006
:101b8000180190000198a30002003a000200e00052
:101b900035003a000190a0003104980080047800dc
:101ba000f90fb2000200e00002003a0028009000a5
:101bb000000c7800ea8f540005003a000178a30079
:101bc00003003a0088007800d0002000e6ff0700fc
:101bd00018009000d8009000810f50000b003200d8
:101be0000000e80010049800180078000948780008
:101bf000000ce80011c0b30040f421000148780057
:101c0000ea8f540018003a00050037008800780079
:101c10000940780073030700800478001200370041
:101c2000380090000088a3000f00320018019000d7
:101c3000a80090004800900098fa070098009000d3
:101c4000810f500004003200380090000003b30000
:101c5000300498008084eb000000eb001004980032
:101c600028009000000c7800090078004f04be00a6
:101c700000000600d0019000028151004240a900fe
:101c80000300340010017800014978000208e800e0
:101c90000100780000000600fe874700889fbe0014
:101ca0008a9fbe008c9fbe008e1f78008006780041
:101cb000d1af9f0092b79f000007eb003d033700b4
:101cc000dfa897008100e800d1af9f0051c2b300a8
:101cd000814f500003003a005fa897000006eb0018
:101ce00011003700bd0090000000fb000168a30058
:101cf000070032000e017800800078000d007800a7
:101d0000dcff07000000e00005003a00290337006f
:101d10008d00780094ff0700e10f4000250332009a
:101d20000e07e80023033700800078003041780078
:101d3000d3c2b300834f51000c00320007003c00b7
:101d4000edc15100834f51000a003200ebc1410048
:101d5000834f51000d003a000800370003c3b30061
:101d6000834f510009003a00060037000c30a000f4
:101d7000edff37000c00a000ebff37000c10a000b7
:101d8000e9ff37000c20a000e7ff37000c18a30084
:101d9000010032000c00a1000c38a3000100320049
:101da0000c20a1000200fb000003b100e90f50006d
:101db0000c003e00010178000000eb00ea00b900d1
:101dc000b200fb000103b1000080400082007800f7
:101dd0009201fb000303b100e98f5100f7ff3600c9
:101de000080037000000eb00a3c2b300834f51008e
:101df00004003a001fb197004200780092b79f009c
:101e00008100e8008001eb00a3b79f00e2c2b300ad
:101e1000914f11000c003a000ce0a0006441510009
:101e2000d14f110003003200010178000302780055
:101e3000090037001fb29700c402780094b79f00d2
:101e4000a5b79f008100e800010178000900370074
:101e5000ea22b9000482410082007800b201fb004e
:101e60000303b100e98f5100f9ff3600a4b79f00ca
:101e7000f5ff3700b2407800d2af9f00c3c6b30071
:101e800083cf5000250032000f003c0032c6b30063
:101e900082cf5000a000320004003c000104e000aa
:101ea000c90232006b4151000f00370042c6b30037
:101eb00082cf5000170032006541410082cf5000b0
:101ec000b3003a001300370032c7b30082cf50008e
:101ed0001f00320007003c006441510082cf5000d7
:101ee000140032000241e80082cf5000a8003a00fe
:101ef0001300370052c7b30082cf5000ab0032004e
:101f00006341410082cf5000a1003a00e1d79f0019
:101f10000d003700e1d79f00a60037000101200027
:101f20000c48a30001003200010028000c8670005c
:101f3000d0ff3700e1d79f000c60a0009d00370064
:101f4000e1d79f000c50a0000c70a0009900370052
:101f5000e1d79f009fb39700c700780097b79f0015
:101f6000b1b79f000100e00002003a0049dc210007
:101f7000b9b79f003fb197008000eb000100370028
:101f80008100e800810141001304e000fcff3a00f9
:101f9000c1b79f002fb597000a00e000050032008e
:101fa000cfb597008b0f5500020031008a007800f2
:101fb000c1b79f00cfb097000004eb00810f500025
:101fc0000100360001045000680666002b003a004c
:101fd000110037003d0090000068a30007003200a8
:101fe0000e017800010220000d00780021ff07009b
:101ff0000000e00006003a00060037008d0078007f
:1020000000022000d8fe0700e10f4000010032006e
:102010000e07e8000804e9000800e000edff3a00c0
:102020000084eb00150037003d0090000068a3001d
:102030000900320008007800b000fb0000047800be
:102040000e0178000d0078000aff07000000e00094
:1020500008003a000f003700880078003100fb00cc
:10206000010478008d007800bffe0700e10f4000fa
:10207000080032000e07e80006003700acb79f00ea
:10208000080678003fb49700cfb497005fb597007b
:10209000efb59700090078008004e9000000e00037
:1020a000e1ff3a00b8b79f00c9b79f00dab79f00b9
:1020b000ebb79f000c0478002fb697000c00e000ef
:1020c0003c023200110037003d0090000068a30080
:1020d000070032000e017800010220000d00780098
:1020e000e4fe07000000e00006003a0006003700aa
:1020f0008d007800000220009bfe0700e10f4000e9
:10210000010032000e07e8000804e9000800e000c2
:10211000edff3a00270237009fb297004504780090
:1021200095b79f00cfc4de00614db9000802be0024
:102130000a03be004822de00c828dd0004827000c9
:10214000e4d79f000c48a300090032000404e0001b
:1021500007003200e14f420005003200f4d79f0033
:1021600088df9f0022002000c2b79f0003003700d5
:10217000f8d79f0013002000c3b79f0064fd2f0015
:102180000f0242000402e800b4b79f0081ff37004d
:10219000e1d79f0065fd2f0085824700b5b79f00fe
:1021a00016002000c6b79f007aff3700e1d79f00d6
:1021b0000c0cb3008c007800010cb20032003a0025
:1021c0000c00e00005003d009fb097004105be00f7
:1021d0004104be0091b79f00080037000c48a300df
:1021e0000b0032001fb297004401be0094b79f005d
:1021f0000204be004fcdde008a057800b8b79f000c
:10220000c9b79f00dab79f00ebb79f0009003700fe
:102210009fb49700c900780099b79f00610ab90080
:10222000612bb900b4b79f00c5b79f00d6b79f0018
:10223000e7b79f003fb49700cfb497005fb5970012
:10224000efb59700e00f5400e08f5c00e00f5d00f9
:10225000e08f5d0022003d003c00b3006022b8002a
:102260006033b8000804520089845a000a055b00f4
:102270008b855b00b8b79f00c9b79f00dab79f0096
:10228000ebb79f00160037000c00e00004003d0093
:102290001fb497004803be004802be000500370087
:1022a0000c48a300050032001fb497004802be008e
:1022b0006033b80098b79f00050037009fb49700bf
:1022c000c900780099b79f00610ab8006033b80070
:1022d000b4b79f00c5b79f00d6b79f00e7b79f0070
:1022e000afb297000500e0000d003a001600200094
:1022f000a6b79f003fb49700cfb497005fb5970093
:10230000efb59700e00f5400e08f5c00e00f5d0038
:10231000e08f5d00020032008004eb00a9b79f004f
:102320000c0578000a0cb2008ab79f000104200057
:10233000810f55003400320003003c000a00e00029
:102340000800320048003700010820008fb59700d0
:10235000818f550014003200010c2000818f550040
:1023600041003a0042dd210011c0b3003202be003c
:102370003203be003fb49700cfb497005fb597001b
:10238000efb597000440e10005c8e10006d0e10088
:1023900007d8e100330039008140e800f4cf500055
:1023a000f2ff3a002f00370011c0b30004012000f3
:1023b000050020006033b8003fb49700cfb4970009
:1023c0005fb59700efb597000440e10005c8e10054
:1023d00006d0e10007d8e1002200390049002000c2
:1023e0000402d0008582d2000683d2008783d20007
:1023f0008904e900faff3a008140e800f0cf50007c
:10240000edff3a001700370011c0b3008400200030
:10241000050020006033b8003fb49700cfb49700a8
:102420005fb59700efb597000440e10005c8e100f3
:1024300006d0e10007d8e1000a0039003900200089
:102440000402d0008582d2000683d2008783d200a6
:102450008904e900faff3a008140e800f5cf500016
:10246000edff3a00e1d79f006fd597008a00fb008f
:10247000afb597008b8f500002003d00ebd79f0057
:10248000040037002fb19700810f510001003d007b
:10249000a1b79f000000e00003003200e3006600e7
:1024a000010032000000e9000ce8a3000600320041
:1024b000afb19700830f50000200340003005000ba
:1024c000010037000000eb006fd297008400fb0092
:1024d0008002eb00f5af9f00810f50000200340036
:1024e00081005000f1af9f000c28a3003c00320097
:1024f000610166000c18a3000f0032003d0090003f
:102500000068a30006003200b10220000200e000d3
:10251000010032008180e8000e0178000d003700d4
:10252000b00220000200e000010032000080e8005c
:102530008d0078000e0037000200e000100032002d
:102540003d0090000068a300070032000e017800f3
:10255000010220000d007800c6fd07000000e00029
:1025600006003a00060037008d00780000022000c7
:102570007dfd0700e10f4000010032000e07e8007a
:102580007fab97000600e00052003200060478009e
:102590003d0090000068a300070032000e017800a3
:1025a000010320000d007800b2fd07000000e000ec
:1025b00006003a00060037008d0078000003200076
:1025c00069fd0700e10f4000010032000e07e8003e
:1025d0000804e900eeff3a00f8af9f003d00370025
:1025e000ffab97000700e000160032000c38a30094
:1025f00014003a00070478003d0090000068a30032
:10260000070032000e017800010220000d00780062
:1026100098fd07000000e00006003a0006003700c1
:102620008d007800000220004ffd0700e10f400000
:10263000010032000e07e8000804e900eeff3a004e
:10264000f8af9f00610166000c18a3000f00320074
:102650003d0090000068a30006003200b102200097
:102660000200e000010032008180e8000e017800e5
:102670000d003700b00220000200e000010032002f
:102680000080e8008d0078000e0037000200e000b6
:10269000100032003d0090000068a30007003200e7
:1026a0000e017800010220000d00780071fd070086
:1026b0000000e00006003a00060037008d007800b8
:1026c0000002200028fd0700e10f40000100320059
:1026d0000e07e8002fb497008800e900c308dd006a
:1026e000c0dc210000804000e0af9f009600370072
:1026f000afb497008904e900a9b79f000004200047
:102700000fb59700800f55006a00320003003c00af
:102710000a00e000080032007700370000082000bf
:102720008fb59700808f55004c003200000c2000c0
:10273000808f550070003a000c00e0001e003d0044
:102740006fa897003004be002005be000802be003e
:102750000a03be003fb09700cfb097005fb197006b
:10276000efb197007f010700e0d79f000000fb005a
:10277000cf80de006109b9000802be000a03be0076
:10278000e10107003fb29700cfb297005fb3970017
:10279000efb397000002520081825a0002035b00ef
:1027a00083835b00b4b79f00c5b79f00d6b79f0077
:1027b000e7b79f00250037000c48a3001a0032003d
:1027c0003fb29700cfb297006fab97003604be00c0
:1027d0002605be000801be000400be00f4b79f003d
:1027e00085bf9f00edfa0700e0d79f000000fb00c7
:1027f000cf80de000801be00bb0007007fb297005b
:102800008fba97000002520081825a000404be0071
:102810006055b800b8b79f00c9b79f00dab79f00ee
:10282000ebb79f0009003700efac97001901780063
:102830003fb59700110009000285d800a2002000d2
:10284000110009000280d800e1d79f00efd5970062
:102850000b43b000ebd79f002700370030db21008f
:102860000c58a3000100320020da21002fb197009c
:10287000c210dd003fb29700cfb297005fb3970060
:10288000efb397008100e900050033008703d10012
:102890000683d3008582d3000482d300f9ff37007a
:1028a0006f0262000402400014427800e4d79f00e7
:1028b00011003700afb19700e318b9003fb297009d
:1028c000cfb297005fb39700efb397000004780092
:1028d0000804e900050033008703d1000683d30014
:1028e0008582d3000482d300f9ff3700674062007d
:1028f0000043b000e0d79f00bd009000efd49700e8
:102900000900fb000168a300070032000e017800f7
:10291000800078000d007800d6fc07000000e00081
:1029200005003a00050037008d0078008efc070096
:10293000e10f4000010032000e07e8006fad970084
:1029400068055500eaaf9f00afb597000b00e000a7
:1029500067ff3a000c38a300160032007fa89700ea
:102960000000e00013003400000478003d009000f7
:102970000068a300070032000e0178000102200069
:102980000d007800bbfc07000000e00006003a00e4
:10299000060037008d0078000002200072fc07005e
:1029a000e10f4000010032000e07e8000804e900d2
:1029b000eeff3a00dfa8970011407800e0d79f00b3
:1029c0000004e000befc3a000e0078004f077800db
:1029d0004f06be004f05be004f04be00ef01b10020
:1029e000000006000200fa00889fbe00a0ff9f00c2
:1029f00001047800380090000068a30033003a001a
:102a0000e200600005003a000003b30030049800c3
:102a1000110498000080eb002e003700d8049000cd
:102a20000900e00006003a0012002000e68057008e
:102a30004800900019f70700190498002300370098
:102a4000a80090000100e00008003a0071f42100a5
:102a500021049800010c7800210020005104980006
:102a6000110498000030a000300498001801900074
:102a7000a80090004800900008f707002800900088
:102a80008080eb0011049800aff8970001487800af
:102a9000000ce8002ff89700ea4f50000b003a00b6
:102aa000380090000088a300080032001801900050
:102ab000a800900048009000f8f607000000eb0026
:102ac00010049800a8009000010c7800aff897005f
:102ad0000100fb004f04be000080fa000000060069
:102ae00000c0da0000000600020ab900001bb900ad
:102af0000200b8008100420081004300000006008f
:102b0000889fbe008a9fbe0030044200b0844a0005
:102b100030054b0090854b006000b1000898be0066
:102b20000a90be000440e10005c8e10006d0e100c3
:102b300007d8e10002003100680040001008e800fa
:102b40004f05be004f04be0000000600889fbe0077
:102b50008a9fbe003004be002005be000418540049
:102b600005985c0006185d0007985d0011002000c4
:102b70000440e10005c8e10006d0e10007d8e1000b
:102b8000010039008000eb00108810004f05be00e6
:102b90004f04be00000006001200fa00889fbe002d
:102ba0008a9fbe008c9fbe00e0b79f00f1b79f00d8
:102bb00082bf9f0093bf9f000605be000404be00b5
:102bc0000000eb00d0b79f00c0b79f00b0b79f00d8
:102bd000a0b79f0090b79f000006eb005fb1970081
:102be000cfb09700820141003fb097000200e000a3
:102bf00004003d00370007007e805700c0ff07003b
:102c000003003700330007007e805700cfff070026
:102c1000dfb697000d00e0000c0035006fb29700a2
:102c2000ffb297000fbb97009fbb970010002000da
:102c3000010020006011b800000272008182720061
:102c400002037300838373001b0007000c06e80077
:102c500001042000810f5600e0ff3a000d00e00063
:102c600004003d000802be000a03be007e8057003b
:102c7000a3ff07005fa897000000e00005003a00ee
:102c80001fb29700afb297003fb39700cfb3970042
:102c9000090007006fb09700ffb097000fb99700c9
:102ca0009fb997004f06be004f05be004f04be00ff
:102cb0000080fa0000000600010007000000060086
:102cc000a4b79f00b5b79f00c6b79f00d7b79f00b6
:102cd000000006004f09de0082817100b3b79f003b
:102ce0004f01de008180400082807000a1b79f000c
:102cf0008fb097004f09de00000040000200700016
:102d000090b79f007fa897004f01de0081804000b0
:102d10008280700081b79f000d0007004f3ade00ef
:102d20000000400004007000f0af9f0008000700a2
:102d30000402420085824a0006034b0087834b0051
:102d4000dfff07000802be000a03be000000060005
:102d50002fb29700bfb297004fb39700dfb3970031
:102d600000000600881f780018002000881f7800e7
:102d700089ff07008f87e9004f04780000000600f4
:102d8000801feb0084ff07008f87e900000006002a
:102d9000889fbe008a9fbe00e00f5000e08f580061
:102da000e00f5900e08f59000c003d006044b8006e
:102db0006055b8000000540081805c0002015d0095
:102dc00083815d00180020001500070008003d0009
:102dd000180007000004eb00050037000004eb00ba
:102de0000f00070002003d0012000700180020003d
:102df000dcff07000800e000060032006022b80097
:102e00006033b8000000520081805a0002015b006c
:102e100083815b004f05be004f04be00000006002a
:102e2000e00f5200e08f5a00e00f5b00e08f5b0084
:102e3000000006006044b8006055b8000402540069
:102e400085825c0006035d0087835d00000006004c
:102e5000889fbe008a9fbe008c1f7800e00f500044
:102e6000e08f5800e00f5900e08f59000d003d0041
:102e70006044b8006055b8000000540081805c00d8
:102e800002015d0083815d001c0020000820e1003c
:102e900009a8e1000ab0e1000bb8e1000d003d0017
:102ea000080037000006eb00e00f5200e08f5a00e8
:102eb000e00f5b00e08f5b0006003d006044b8005f
:102ec0006055b8000402540085825c0006035d0072
:102ed00087835d00aaff07000c00e00006003200b7
:102ee0006022b8006033b8000000520081805a00b0
:102ef00002015b0083815b004f0678004f05be0036
:102f00004f04be0000000600889fbe008a9fbe00de
:102f10008c1f78000006eb00e00f5000e08f580097
:102f2000e00f5900e08f590007003d006044b800f1
:102f30006055b8000000540081805c0002015d0013
:102f400083815d001c002000e00f5200e08f5a00da
:102f5000e00f5b00e08f5b0007003d006044b800bd
:102f60006055b8000402540085825c0006035d00d1
:102f700087835d000c00a2000c0007000c00e0003d
:102f8000060032006022b8006033b8000000520032
:102f900081805a0002015b0083815b004f0678004c
:102fa0004f05be004f04be0000000600889fbe0013
:102fb0008a9fbe008c9fbe000404b8000506b800be
:102fc0008904460060854e000606b8000a054600e2
:102fd000e0854e000706b8008b054600040eb800d9
:102fe000890446000a854e00e0854d00050eb800b4
:102ff0000a0546008b854e00060eb8008b0546007c
:103000000416b8000a0546008b854e000516b80068
:103010008b054600041eb8008b0546000800be0064
:103020000a01be004f06be004f05be004f04be00a1
:043030000000060096
:020000040000fa
:10303400574900005a3500003530000030200000a8
:10304400697300002072000065730000657400005d
:103054000d000000507200006f6200006c650000fb
:103064006d20000077690000746800002070000083
:103074006879000073690000636100006c2000003f
:103084006c6900006e6b0000206400006574000031
:1030940065630000740d00000050000068790000b2
:1030a40073690000636100006c2000006c6900001b
:1030b4006e6b0000206600006f7500006e640000f7
:1030c4000d0000003e3e0000204400004843000084
:1030d40050200000256400002046000061690000c3
:1030e4006c650000640d00000a000000534f0000ee
:1030f400434b00004554000020450000525200009c
:103104004f520000203a0000202500006c640000ab
:103114000d0a0000000d00000a3d00003d3d0000c6
:1031240020250000732000004e45000054200000bc
:10313400434f00004e460000203a000020440000a7
:1031440048430000502000003d3d00003d0d0000bc
:103154000a0000000d0a00003d3d00003d20000073
:1031640025730000204e0000455400002043000059
:103174004f4e0000462000003a2000005374000027
:103184006174000069630000203d00003d3d0000c3
:103194000d0a0000004d0000414300003a200000e9
:1031a40025300000325800003a250000303200007b
:1031b400583a000025300000325800003a2500003b
:1031c40030320000583a0000253000003258000028
:1031d4003a25000030320000580d00000a000000bb
:1031e40053490000503a000020250000642e0000de
:1031f400256400002e250000642e000025640000d4
:103204000d0a000000470000415200003a2000006f
:10321400256400002e250000642e000025640000b3
:103224002e250000640d00000a0000005355000024
:10323400423a000020250000642e000025640000ae
:103244002e250000642e0000256400000d0a0000f5
:10325400004400004e5300003a20000025640000a2
:103264002e250000642e0000256400002e25000099
:10327400640d00000a0000003d3d00003d3d0000db
:103284003d3d00003d3d00003d3d00003d3d000052
:103294003d3d00003d3d00003d3d00003d3d000042
:1032a4003d3d00003d3d00003d3d00003d0d000062
:1032b4000044000048430000502000004c4500003a
:1032c400415300004544000020540000494d0000d3
:1032d400452000003a200000256c00006420000016
:1032e40053650000632e00000d0a00000043000037
:1032f4004f4e0000464c000049430000542000009b
:103304004950000020660000726f00006d2000002c
:1033140044480000435000000d00000043480000f2
:10332400454300004b5f0000495000005f4300002c
:103334004f4e0000464c000049430000540000007a
:020000040000fa
:103344000000fa004300200092ea210000f020006f
:1033540001002000da1b07004300200012eb2100cb
:103364000050200001002000d51b0700430020006e
:10337400d2ea21000010200001002000d01b070029
:103384000080fa00000006000000fa0002c8b30042
:103394006000b800331b07006000b800ee1a070095
:1033a400e7ff07006300200062ec2100009020008a
:1033b40001002000c21b07000080fa000000060084
:1033c4000000fa0002c8b3006000b800251b070023
:1033d4006000b800e01a07006300200062ec2100de
:1033e4000090200001002000b51b07000080fa00b7
:1033f400000006000600fa00000f7800110798008c
:1034040022079800209a2100f0f88800609c21008f
:1034140000f98800209e210010f988001e00780021
:103424000000e000020032009e007800f1f88800fd
:103434001e0090000000e000020032009e00900098
:1034440001f988002e0090000000e0000200320024
:10345400ae00900011f988000080fa000000060018
:103464000a00fa00640047006300200000017800ad
:1034740000902000010020003b1b070020f6800084
:1034840011c0b3000148780020f6800011c0b300d9
:103494001140980020f6800061c0b30021409800dc
:1034a40020f680008040eb003140980020f6800038
:1034b400640040001007980000f6800011f68000b8
:1034c4004808de00804078001e0090000148780023
:1034d4001e0090000002e80002f6800013f680004f
:1034e40000002000f10f2000820278000301780020
:1034f400800178000100780083826200000061008e
:103504008000eb00c000dd00000020000001be00d0
:103514006128b80000017100818171004018de004b
:103524000100200000407800004a78001e0090004e
:103534000082e80002f6800013f6800000f02f00fd
:1035440001002000820278000301780080017800e5
:103554000100780083826200000061008000eb00bb
:10356400c000dd00000020000001be006128b8009a
:103574000001710081817100c81add004810de006d
:1035840000807200c818de0000407800004a78000d
:103594001e0090006301400000f6800011f68000d8
:1035a400004078000049780020f680008000eb009d
:1035b4004100980020f680006a004000100798003f
:1035c4001e00900001c8b300014878001e0090005e
:1035d4000000e8008040eb000148780020f68000fd
:1035e4008040eb004148980020f680008040eb00ca
:1035f4005148980020f680008040eb006148980014
:1036040020f680008040eb007148980020f680008e
:103614008040eb000150980020f680008040eb00d1
:103624001150980020f680008040eb002150980053
:1036340020f680008040eb003150980020f6800096
:103644008040eb004150980020f680008040eb0061
:103654005150980020f680008040eb0061509800a3
:1036640020f680008040eb007150980020f6800026
:103674008040eb000158980020f680008040eb0069
:103684001158980020f680008040eb0021589800e3
:1036940020f680008040eb003158980020f680002e
:1036a40061ec2100914078004158980020f6800098
:1036b40071ec2100914078005158980020f6800068
:1036c40081ec2100914078006158980020f6800038
:1036d40091ec2100914078007158980020f6800008
:1036e400a1ec2100914078000160980020f6800050
:1036f400b1ec2100914078001160980060c0b300e3
:10370400004f78000900370022f680001e80fb007d
:10371400cf80de007c004000e080480000004100d3
:103724008040eb00014878001e4fe8001e407800fe
:10373400ef4f5000f4ff36000040eb00004f7800dc
:103744000900370022f680001e80fb00cf80de00d7
:10375400c002b0000180b000000041008040eb00d6
:10376400014878001e4fe800f0c3b3009e40780083
:1037740080cf5000f3ff36000040eb00004f78008c
:103784000900370022f680001e80fb00cf80de0097
:10379400c006b0000180b000000041008040eb0092
:1037a400014878001e4fe8001e4078000004e00045
:1037b400f4ff3d0020f6800031c6b30041e89900d3
:1037c40020f6800021c8b30051e8990020f680005b
:1037d40031c5b30061e8990020f6800031c6b3001a
:1037e40071e899000080fa00000006000800fa0061
:1037f4000000eb001007980019ff070040002000ac
:103804001007980022f680001e0090008000eb0054
:10381400c00eb0000180b0000000410051c3b300ed
:10382400014878001e0090000000e800100798008e
:1038340022f680001e0090008000eb00c00eb00055
:103844000180b0000000410011c0b30001487800bd
:103854001e0090000000e8001007980022f6800087
:103864001e0090008000eb00c00eb0000180b0008c
:103874000000410011c0b300014878001e00900010
:103884000000e8001007980022f680001e00900057
:103894008000eb00c00eb0000180b00000004100c9
:1038a400d1c3b300014878001e0090000000e80076
:1038b4001007980022f680001e0090008000eb00a4
:1038c400c00eb0000180b0000000410071c0b30020
:1038d400014878001e0090000000e80010079800de
:1038e40022f680001e0090008000eb00c00eb000a5
:1038f4000180b0000000410011c0b300014878000d
:103904001e0090000000e8001007980023f68000d5
:1039140060ec2100104178001e0090008000eb0054
:10392400c00eb0000180b000008041000248780061
:103934001e0090000000e8001007980023f68000a5
:1039440070ec2100104178001e0090008000eb0014
:10395400c00eb0000180b000008041000248780031
:103964001e0090000000e8001007980023f6800075
:1039740080ec2100104178001e0090008000eb00d4
:10398400c00eb0000180b000008041000248780001
:103994001e0090000000e8001007980023f6800045
:1039a40090ec2100104178001e0090008000eb0094
:1039b400c00eb0000180b0000080410002487800d1
:1039c4001e0090000000e8001007980023f6800015
:1039d400a0ec2100104178001e0090008000eb0054
:1039e400c00eb0000180b0000080410002487800a1
:1039f4001e0090000000e8001007980023f68000e5
:103a0400b0ec2100104178001e0090008000eb0013
:103a1400c00eb0000180b000008041000248780070
:103a24001e0090000000e8001007980022f68000b5
:103a34001e0090008000eb00c00eb0000180b000ba
:103a440000004100c1c0b300014878001e0090008e
:103a54000000e8001007980022f680001e00900085
:103a64008000eb00c00eb0000180b00000004100f7
:103a74008040eb00014878001e0090000000e80040
:103a8400100798000000eb00000f780010003700ca
:103a940023f680001e0078008000eb0062f1210014
:103aa40000004100104178001e0090008000eb00ef
:103ab400c00eb0000180b0000080410002487800d0
:103ac4001e0090000000e800100798001e0fe80098
:103ad4001e0078008000eb0062f12100000041002c
:103ae400104078000004e000e9ff3a0023f680006b
:103af40090ec2100104178001e0090008000eb0043
:103b0400c00eb0000180b00000804100024878007f
:103b14001e0090000000e8001007980023f68000c3
:103b2400a0ec2100104178001e0090008000eb0002
:103b3400c00eb0000180b00000804100024878004f
:103b44001e0090000000e8001007980023f6800093
:103b5400b0ec2100104178001e0090008000eb00c2
:103b6400c00eb0000180b00000804100024878001f
:103b74001e0090000000e8001007980023f6800063
:103b84001e0090001e005000640050009e0078004b
:103b94008140780063c140008000eb00c00eb0009b
:103ba4000180b000008041000248780022f68000c5
:103bb4001e0090008000eb00c00eb0000180b00039
:103bc4000000410071c3b300014878001e0090005a
:103bd4000000e8001007980022f680001e00900004
:103be4008000eb00c00eb0000180b0000000410076
:103bf40061c0b300014878001e0090000000e80096
:103c04001007980022f680001e0090008000eb0050
:103c1400c00eb0000180b0000000410011c0b3002c
:103c2400014878001e0090000000e800100798008a
:103c340022f680001e0090008000eb00c00eb00051
:103c44000180b0000000410031c0b3000148780099
:103c54001e0090000000e8001007980022f6800083
:103c64001e0090008000eb00c00eb0000180b00088
:103c74000000410061c0b300014878001e009000bc
:103c84000000e8001007980022f680001e00900053
:103c94008000eb00c00eb0000180b00000004100c5
:103ca400f1c0b300014878001e0090000000e80055
:103cb4001007980022f680001e0090008000eb00a0
:103cc400c00eb0000180b00000004100a1c3b300e9
:103cd400014878001e0090000000e80010079800da
:103ce40022f680001e0090008000eb00c00eb000a1
:103cf4000180b00000004100b1c3b3000148780066
:103d04001e0090000000e8001007980022f68000d2
:103d14001e0090008000eb00c00eb0000180b000d7
:103d24000000410080c0eb00014878001e009000b4
:103d34000000e800100798009e009000010f780032
:103d44000900370022f680001e0078008000eb0096
:103d5400c00eb0000180b000000041008040eb00c4
:103d6400014878001e0fe800701320009e007800c0
:103d7400808f5000f3ff360000c0eb0040479800ee
:103d840000c0eb005047980000c0eb00604798006b
:103d940000c0eb007047980020f680008000780097
:103da40000ea210010407800640147003404200038
:103db4008201780042222000850a07000080fa0070
:103dc400000006000800fa000000eb00100798004d
:103dd400a3fd070090eb210010407800e34f500052
:103de4000400320090eb210010407800e44f5000b2
:103df40026003a0020f680006a0040008040eb0074
:103e04000148780020f680006a0040000000e800c5
:103e14008040eb000148780020f6800091ea210000
:103e2400914078004148980020f68000a1ea2100e2
:103e3400914078005148980020f68000b1ea2100b2
:103e4400914078006148980020f68000c1ea210082
:103e5400914078007148980010ea210010407800e1
:103e64004047980020ea210010407800504798000d
:103e740030ea2100104078006047980040ea2100b1
:103e840010407800704798000800370000c0eb002d
:103e94004047980000c0eb005047980000c0eb007a
:103ea4006047980000c0eb00704798004000200075
:103eb4001007980022f680001e0090008000eb009e
:103ec400c00eb0000180b0000000410051c3b30037
:103ed400014878001e0090000000e80010079800d8
:103ee40022f680001e0090008000eb00c00eb0009f
:103ef4000180b0000000410011c0b3000148780007
:103f04001e0090000000e8001007980022f68000d0
:103f14001e0090008000eb00c00eb0000180b000d5
:103f24000000410031c0b300014878001e00900039
:103f34000000e8001007980022f680001e009000a0
:103f44008000eb00c00eb0000180b0000000410012
:103f5400d1c3b300014878001e0090000000e800bf
:103f64001007980022f680001e0090008000eb00ed
:103f7400c00eb0000180b0000000410071c0b30069
:103f8400014878001e0090000000e8001007980027
:103f940022f680001e0090008000eb00c00eb000ee
:103fa4000180b0000000410011c0b3000148780056
:103fb4001e0090000000e8001007980023f680001f
:103fc40060ec2100104178001e0090008000eb009e
:103fd400c00eb0000180b0000080410002487800ab
:103fe4001e0090000000e8001007980023f68000ef
:103ff40070ec2100104178001e0090008000eb005e
:10400400c00eb0000180b00000804100024878007a
:104014001e0090000000e8001007980023f68000be
:1040240080ec2100104178001e0090008000eb001d
:10403400c00eb0000180b00000804100024878004a
:104044001e0090000000e8001007980023f680008e
:1040540090ec2100104178001e0090008000eb00dd
:10406400c00eb0000180b00000804100024878001a
:104074001e0090000000e8001007980023f680005e
:10408400a0ec2100104178001e0090008000eb009d
:10409400c00eb0000180b0000080410002487800ea
:1040a4001e0090000000e8001007980023f680002e
:1040b400b0ec2100104178001e0090008000eb005d
:1040c400c00eb0000180b0000080410002487800ba
:1040d4001e0090000000e800100798007e40900049
:1040e400e14f40008c003a0022f680001e00900050
:1040f4008000eb00c00eb0000180b0000000410061
:1041040021c3b300014878001e0090000000e800bd
:104114001007980022f680001e0090008000eb003b
:10412400c00eb0000180b0000000410041c0b300e7
:10413400014878001e0090000000e8001007980075
:1041440023f6800090ea2100104178001e009000c0
:104154008000eb00c00eb0000180b0000080410080
:10416400024878001e0090000000e8001007980044
:1041740023f68000a0ea2100104178001e00900080
:104184008000eb00c00eb0000180b0000080410050
:10419400024878001e0090000000e8001007980014
:1041a40023f68000b0ea2100104178001e00900040
:1041b4008000eb00c00eb0000180b0000080410020
:1041c400024878001e0090000000e80010079800e4
:1041d40023f68000c0ea2100104178001e00900000
:1041e4008000eb00c00eb0000180b00000804100f0
:1041f400024878001e0090000000e80010079800b4
:1042040022f680001e0090008000eb00c00eb0007b
:104214000180b0000000410061c3b3000148780090
:104224001e0090000000e8001007980022f68000ad
:104234001e0090008000eb00c00eb0000180b000b2
:104244000000410041c0b300014878001e00900006
:104254000000e8001007980023f6800010ea21000f
:10426400104178001e0090008000eb00c00eb000ea
:104274000180b00000804100024878001e009000d8
:104284000000e8001007980023f6800020ea2100cf
:10429400104178001e0090008000eb00c00eb000ba
:1042a4000180b00000804100024878001e009000a8
:1042b4000000e8001007980023f6800030ea21008f
:1042c400104178001e0090008000eb00c00eb0008a
:1042d4000180b00000804100024878001e00900078
:1042e4000000e8001007980023f6800040ea21004f
:1042f400104178001e0090008000eb00c00eb0005a
:104304000180b00000804100024878001e00900047
:104314000000e8001007980022f680001e009000bc
:104324008000eb00c00eb0000180b000000041002e
:10433400c1c0b300014878001e0090000000e800ee
:104344001007980022f680001e0090008000eb0009
:10435400c00eb0000180b000000041008040eb00be
:10436400014878001e0090000000e8001007980043
:104374000000eb00000f78001000370023f68000e7
:104384001e007800cf80de0062f1210000004100b1
:10439400104178001e0090008000eb00c00eb000b9
:1043a4000180b00000804100024878001e009000a7
:1043b4000000e800100798001e0fe8001e007800b7
:1043c400cf80de0062f1210000004100104078003f
:1043d4000004e000e9ff3a0023f6800090ec21009d
:1043e400104178001e0090008000eb00c00eb00069
:1043f4000180b00000804100024878001e00900057
:104404000000e8001007980023f68000a0ec2100cb
:10441400104178001e0090008000eb00c00eb00038
:104424000180b00000804100024878001e00900026
:104434000000e8001007980023f68000b0ec21008b
:10444400104178001e0090008000eb00c00eb00008
:104454000180b00000804100024878001e009000f6
:104464000000e8001007980023f680001e00780082
:104474009e00900000805000640050009e00780070
:104484008140780063c140008000eb00c00eb000a2
:104494000180b000008041000248780022f68000cc
:1044a4001e0090008000eb00c00eb0000180b00040
:1044b4000000410071c3b300014878001e00900061
:1044c4000000e8001007980022f680001e0090000b
:1044d4008000eb00c00eb0000180b000000041007d
:1044e40081c0b300014878001e0090000000e8007d
:1044f4001007980022f680001e0090008000eb0058
:10450400c00eb0000180b0000000410011c0b30033
:10451400014878001e0090000000e8001007980091
:1045240022f680001e0090008000eb00c00eb00058
:104534000180b0000000410031c0b30001487800a0
:104544001e0090000000e8001007980022f680008a
:104554001e0090008000eb00c00eb0000180b0008f
:104564000000410061c0b300014878001e009000c3
:104574000000e8001007980022f680001e0090005a
:104584008000eb00c00eb0000180b00000004100cc
:10459400f1c0b300014878001e0090000000e8005c
:1045a4001007980022f680001e0090008000eb00a7
:1045b400c00eb0000180b00000004100a1c3b300f0
:1045c400014878001e0090000000e80010079800e1
:1045d40022f680001e0090008000eb00c00eb000a8
:1045e4000180b00000004100b1c3b300014878006d
:1045f4001e0090000000e8001007980022f68000da
:104604001e0090008000eb00c00eb0000180b000de
:1046140000004100f1c1b300014878001e00900081
:104624000000e8001007980022f680001e009000a9
:104634008000eb00c00eb0000180b000000041001b
:1046440011c2b300014878001e0090000000e80089
:104654001007980022f680001e0090008000eb00f6
:10466400c00eb0000180b0000000410080c0eb002b
:10467400014878001e0090000000e8001007980030
:104684009e009000010f78000900370022f6800098
:104694001e007800cf80de00c00eb0000180b000a4
:1046a400000041008040eb00014878001e0fe80044
:1046b400701320009e007800808f5000f3ff3400b8
:1046c40020f680008000780000ea21001040780085
:1046d4006401470034042000820178004222200053
:1046e4003b0807000080fa00000006000800fa00fa
:1046f4000000eb001007980059fb07004000200061
:104704001007980020f680006a0040008040eb000b
:104714000148780020f680006a0040000000e800ac
:104724008040eb000148780022f680001e009000d3
:104734008000eb00c00eb0000180b000000041001a
:1047440051c3b300014878001e0090000000e80047
:104754001007980022f680001e0090008000eb00f5
:10476400c00eb0000180b0000000410011c0b300d1
:10477400014878001e0090000000e800100798002f
:1047840022f680001e0090008000eb00c00eb000f6
:104794000180b0000000410041c0b300014878002e
:1047a4001e0090000000e8001007980022f6800028
:1047b4001e0090008000eb00c00eb0000180b0002d
:1047c40000004100d1c3b300014878001e009000ee
:1047d4000000e8001007980022f680001e009000f8
:1047e4008000eb00c00eb0000180b000000041006a
:1047f40071c0b300014878001e0090000000e8007a
:104804001007980022f680001e0090008000eb0044
:10481400c00eb0000180b0000000410011c0b30020
:10482400014878001e0090000000e800100798007e
:1048340023f6800060ec2100104178001e009000f7
:104844008000eb00c00eb0000180b0000080410089
:10485400024878001e0090000000e800100798004d
:1048640023f6800070ec2100104178001e009000b7
:104874008000eb00c00eb0000180b0000080410059
:10488400024878001e0090000000e800100798001d
:1048940023f6800080ec2100104178001e00900077
:1048a4008000eb00c00eb0000180b0000080410029
:1048b400024878001e0090000000e80010079800ed
:1048c40023f6800090ec2100104178001e00900037
:1048d4008000eb00c00eb0000180b00000804100f9
:1048e400024878001e0090000000e80010079800bd
:1048f40023f68000a0ec2100104178001e009000f7
:104904008000eb00c00eb0000180b00000804100c8
:10491400024878001e0090000000e800100798008c
:1049240023f68000b0ec2100104178001e009000b6
:104934008000eb00c00eb0000180b0000080410098
:10494400024878001e0090000000e800100798005c
:1049540022f680001e0090008000eb00c00eb00024
:104964000180b0000000410021c3b3000148780079
:104974001e0090000000e8001007980022f6800056
:104984001e0090008000eb00c00eb0000180b0005b
:104994000000410041c0b300014878001e009000af
:1049a4000000e8001007980023f6800090ea210038
:1049b400104178001e0090008000eb00c00eb00093
:1049c4000180b00000804100024878001e00900081
:1049d4000000e8001007980023f68000a0ea2100f8
:1049e400104178001e0090008000eb00c00eb00063
:1049f4000180b00000804100024878001e00900051
:104a04000000e8001007980023f68000b0ea2100b7
:104a1400104178001e0090008000eb00c00eb00032
:104a24000180b00000804100024878001e00900020
:104a34000000e8001007980023f68000c0ea210077
:104a4400104178001e0090008000eb00c00eb00002
:104a54000180b00000804100024878001e009000f0
:104a64000000e8001007980022f680001e00900065
:104a74008000eb00c00eb0000180b00000004100d7
:104a840061c3b300014878001e0090000000e800f4
:104a94001007980022f680001e0090008000eb00b2
:104aa400c00eb0000180b0000000410041c0b3005e
:104ab400014878001e0090000000e80010079800ec
:104ac40023f6800010ea2100104178001e009000b7
:104ad4008000eb00c00eb0000180b00000804100f7
:104ae400024878001e0090000000e80010079800bb
:104af40023f6800020ea2100104178001e00900077
:104b04008000eb00c00eb0000180b00000804100c6
:104b1400024878001e0090000000e800100798008a
:104b240023f6800030ea2100104178001e00900036
:104b34008000eb00c00eb0000180b0000080410096
:104b4400024878001e0090000000e800100798005a
:104b540023f6800040ea2100104178001e009000f6
:104b64008000eb00c00eb0000180b0000080410066
:104b7400024878001e0090000000e800100798002a
:104b840022f680001e0090008000eb00c00eb000f2
:104b94000180b0000000410080c0eb0001487800b3
:104ba4001e0090000000e800100798009e0090008e
:104bb400010f78000900370022f680001e007800fb
:104bc400cf80de00c00eb0000180b00000004100c4
:104bd4008040eb00014878001e0fe80070132000ad
:104be4009e007800808f5000f3ff340000c0eb007b
:104bf4004047980000c0eb005047980000c0eb000d
:104c04006047980000c0eb007047980020f68000d1
:104c14008000780000ea2100104078006401470019
:104c2400340420008201780042222000e8060700b4
:104c34000080fa00000006001200fa0000ea2100d9
:104c4400104078003a160700200798002e009000c4
:104c54000000e0001000320020f6800080007800a0
:104c640000ea210010407800f00147006901470084
:104c740003027800820178002e019000c507070026
:104c8400200798008e08900030042000808f500088
:104c940003003200180137000040eb001701370011
:104ca40020f68000c058900060ec2100104078008d
:104cb40080cf50001e003a0020f68000d0589000ab
:104cc40070ec21001040780080cf500018003a00aa
:104cd40020f68000e058900080ec2100104078001d
:104ce40080cf500012003a0020f68000f058900067
:104cf40090ec21001040780080cf50000c003a0066
:104d040020f6800080609000a0ec21001040780024
:104d140080cf500006003a0020f68000906090009a
:104d2400b0ec21001040780080cf50000200320027
:104d34000040eb00f10037000040eb0020479800f2
:104d440020f68000000f7800010f20001e8f400025
:104d54002e0090008000eb00000fb1000180b10034
:104d64001e00400030079800df0037001e00780066
:104d7400104078000080fb00e60f50005c00320019
:104d8400e60f500007003c00e10f50002100320004
:104d9400e30f5000360032000000e000140032003f
:104da400c700370051032000810f50001200320069
:104db40051032000810f500004003c003103200007
:104dc400810f50006a003200bd00370061032000eb
:104dd400810f5000a0003200f10f2000810f50001d
:104de400b7003a00be009000010f7800be00370003
:104df4001e0fe800bc0037001e0fe8001e0fe8007d
:104e04001e00780090407800214798001e0fe800ab
:104e1400b50037001e0fe8001e0fe8001e007800e2
:104e24009040780010eb2100014878001e0fe80044
:104e34001e0078009040780020eb210001487800a3
:104e44001e0fe8001e0078009040780030eb21002f
:104e5400014878001e0fe8001e007800904078009a
:104e640040eb2100014878001e0fe8009e00370047
:104e74001e0fe8001e00780090407800014f980053
:104e84001e0fe8001e00780090407800d0ea210050
:104e9400014878001e0fe8001e007800904078005a
:104ea400e0ea2100014878001e0fe8001e007800a7
:104eb40090407800f0ea2100014878001e0fe800d5
:104ec4001e0078009040780000eb21000148780033
:104ed4001e0fe8000e4890000080fb008000eb00ed
:104ee40064005000e08058001e0f40007e00370030
:104ef4001e0fe8001e00780090407800014f9800d3
:104f04001e0fe8001e0078009040780050eb21004e
:104f1400014878001e0fe8001e00780090407800d9
:104f240060eb2100014878001e0fe8001e007800a5
:104f34009040780070eb2100014878001e0fe800d3
:104f44001e0078009040780080eb21000148780032
:104f54001e0fe8000e4890000080fb008000eb006c
:104f640064005000e08058001e0f40005e003700cf
:104f74001e0fe8001e00780090407800014f980052
:104f84001e0fe8001e007800104078000080fb002f
:104f94008000eb0070f8880081f888001e0fe8009c
:104fa40070f8800081f880004809dd00c801de0047
:104fb400830171004801dd001e0078001040780074
:104fc4000080fb008000eb0002004000838048006a
:104fd40070f8880081f888001e0fe80070f88000df
:104fe40081f880004809dd00c801de0083017100fa
:104ff4004801dd001e007800104078000080fb00ae
:105004008000eb00020040008380480070f88800b4
:1050140081f888001e0fe80070f8800081f8800095
:105024004809dd00c801de00830171004801dd008c
:105034001e007800104078000080fb008000eb0028
:10504400020040008380480070f8880081f88800de
:105054001e0fe800240037001e0fe8001e00780031
:1050640090407800014f98001e0fe8001e00780061
:105074009040780010ea2100014878001e0fe800f3
:105084001e0078009040780020ea21000148780052
:105094001e0fe8001e0078009040780030ea2100de
:1050a400014878001e0fe8001e0078009040780048
:1050b40040ea2100014878001e0fe8000a0037008a
:1050c4001e0fe8001e00780090407800014f980001
:1050d4001e0fe8000e4890000080fb008000eb00eb
:1050e4001e0f4000000000003e0090009e0078006b
:1050f400808f50001dff39002e4090000080fa0080
:10510400000006000200fa0090eb21001040780035
:10511400e64f500002003a0050c0b300da003700f6
:1051240000ea2100104078000080fb004200dd000e
:105134000000e8004300dd000030b000cf80de0056
:105144008513070021c2b300814f500006003200ce
:1051540000ea2100104078008041eb004204200066
:1051640021c0b3000d02070010c0b300004f780047
:10517400b1fe07001047980090eb21001040780022
:105184000000fb00e20f500038003200e20f500034
:1051940005003c000000e00008003200e10f500070
:1051a40017003200b7003700e30f50004e00320002
:1051b400e40f50007c003200b200370090ea210076
:1051c4008040eb0001487800a0ea21008040eb0019
:1051d40001487800b0ea21008040eb0001487800e3
:1051e400c0ea21008040eb00014878007ff9070005
:1051f40090eb210011c0b30001487800a1003700f2
:105204001e409000e24f500015003a0020f6800046
:105214008050900090ea21000148780020f6800038
:1052240090509000a0ea21000148780020f6800008
:10523400a0509000b0ea21000148780020f68000d8
:10524400b0509000c0ea210001487800ddfa070060
:1052540090eb210021c0b300014878008900370099
:1052640094000700004f7800860037001e4090002d
:10527400e54f500011003a00d40007000004e0009c
:1052840007003200f0f8800000000100540107001c
:1052940090eb210031c0b300014878007900370059
:1052a4004f01070010f980000000010090eb21007d
:1052b4008040eb0001487800720037001e409000e7
:1052c400e64f500005003a004501070090eb21002d
:1052d40011c0b300014878006a0037007500070068
:1052e400004f78006700370040c0b300004f7800db
:1052f40072f8800083f880000080eb008080eb006f
:10530400800f5100818f59005b00320070f88000db
:1053140081f880008101d1000081d300e0f5800094
:10532400f1f58000800f5100818f59005400310045
:105334000040eb001047980090ea2100904078006c
:1053440050ea210001487800a0ea2100904078004a
:1053540060ea210001487800b0ea2100904078001a
:1053640070ea210001487800c0ea210090407800ea
:1053740080ea21000148780000f6800011f68000e0
:1053840061004000e080480000f6880011f68800c3
:105394008cfa07001201070090eb210041c0b30012
:1053a400014878003700370040c0b300004f780050
:1053b4001e409000e54f500024003a00a0eb21006d
:1053c4008040eb000148780050ea210090407800ca
:1053d40090ea21001040780080cf500012003a007b
:1053e40060ea210090407800a0ea21001040780093
:1053f40080cf50000c003a0070ea21009040780001
:10540400b0ea21001040780080cf500006003a0036
:1054140080ea210090407800c0ea21001040780022
:1054240080cf50000400320030c0b300004f780039
:1054340000f9800000000100e900070090eb210062
:1054440031c0b300014878000e0037001e409000c0
:10545400e64f500005003a00e100070090eb210000
:1054640011c0b3000148780006003700110007009e
:10547400004f7800030037000000000001003700ef
:10548400000000001e4078000080fa0000000600c2
:105494000000fa0000ea210010407800f50107003e
:1054a40090eb210061c0b300014878000080fa004d
:1054b400000006000200fa0010c0b300004f78009c
:1054c400a0eb210010407800e14f500026003c0082
:1054d40092f88000a3f88000e0f58000f1f58000e8
:1054e400800f5100818f59003500310090eb21006d
:1054f400104078000000fb00e20f5000060032006c
:10550400e40f500006003200e10f500006003a009c
:10551400b6f80700050037002afa07000300370031
:1055240028fa070001003700000000006000b800fe
:10553400e0f58800f1f58800e0f58000f1f58000e1
:105544006a004000e080480090f88800a1f88800d4
:10555400a0eb2100104078008040e800a0eb21007f
:10556400014878001600370090eb210010407800c5
:105574000000fb00e20f50000a003200e40f50006c
:1055840008003200e10f50000b003a0090eb2100bc
:105594008040eb00014878000040eb00004f7800a9
:1055a4000600370091f8070090eb210011c0b3000a
:1055b400014878000100370000000000880007005f
:1055c4001e4078000080fa00000006000600fa0081
:1055d40000b02100010020005f120700004f780096
:1055e40032c0b30000b02100010020009d1207006a
:1055f4000199290000ea2100104078008438210034
:1056040093ea21001201200071040700100798009a
:10561400210798001e41780000b0210001002000fd
:10562400901207001e019000ae01900030ff2f0081
:10563400f1ff2f00800f5100818f590002003a00c2
:1056440010c0b3001200370028fc0700e0f580000a
:10565400f1f5800010079800210798000000000071
:10566400e2f58000f3f580001e009000ae0090008b
:105674000001510081815900100020000100200028
:10568400800f5100818f5900f5ff36000040eb0078
