:020000040000fa
:080000000002040000000000f2
:020000040000fa
:10000800c8020000ce020000ea020000d40200008c
:10001800da020000e0020000ee020000e602000042
:10002800e6020000e6020000e6020000e602000028
:10003800e6020000e6020000e6020000e602000018
:10004800e6020000e6020000e6020000e602000008
:10005800e6020000e6020000e6020000e6020000f8
:020000040000fa
:100400002f0021000eff2d000e01880000000000cb
:100410000c000700604e2000010020000f000700c4
:10042000000020000000e000020032000000020096
:1004300000000000ca040200000000000040da00d2
:100440000000fe00c00120000000e00002003200b9
:10045000002020009001880000000600a102880012
:10046000800078000000eb001a003700e2804000b6
:1004700054a0b4009101ba00e280400054a0b4003e
:100480009102ba00e280400054a0b4000002eb00e8
:10049000472bde00f507b200a6018800602ce100c2
:1004a00008003a000049eb000201e80002003900b0
:1004b0003420ec0002f0a0008301e900f9ff3e00c7
:1004c000040037006128e100010032000082eb00e7
:1004d000040007001101ba000200e000e3ff3a0047
:1004e0000000060004d0a300e20f49001c00390000
:1004f000810278003549ba000201e80002003900a3
:100500003420ec0002f0a0008301e9000f0032006b
:100510002549ba000201e800020039003420ec004d
:1005200002f0a0008301e900080032000400e000ae
:100530000600320015c9ba000201e80002003900c5
:100540003420ec0002f0a0008301e9008180e80083
:1005500054a0b4000300e000e2ff3a0000000600ef
:100560009102ba00055978008301e900f7ff3200d3
:10057000c82ade00055978008301e900f3ff320044
:100580000400e000f1ff320011d9ba00eeff37009d
:100590000000fa00c028a900ffff37000000fa00a1
:1005a000c068a900ffff37000000fa00c048a9009a
:1005b000ffff37000000fa00c088a900ffff3700e6
:1005c0000000fa00c0a8a900ffff37000000fa00f1
:1005d000ffff37000000fa00ffff37000000fa00bd
:0405e000ffff3700e2
:020000040000fa
:1005e40020460000465400005720000044650000e7
:1005f4006d6f00002000000054650000737400005b
:10060400696e000067200000574900005a6e000020
:08061400657400000000000005
:020000040000fa
:10061c000000fa0010132000a500070021728000d2
:10062c0000f02f00008060002072880034aea9001a
:10063c0015eea900348ea9000172800000f02f0085
:10064c00008060000072880030aea90011eea90095
:10065c00308ea9002172800000f02f000080600015
:10066c0020728800217280008003200000807000be
:10067c0020728800348ea8000000000000000000ea
:10068c0000000000348ea9005006200088000700ee
:10069c002172800000f02f00008060002072880022
:1006ac00217280008003200000807000207288007e
:1006bc00348ea800000000000000000000000000c4
:1006cc00348ea900b0002000870007002172800042
:1006dc0000f02f00008060002072880021728000e2
:1006ec00800320000080700020728800348ea800e7
:1006fc00000000000000000000000000348ea90083
:10070c00b00020007800070080c3b300060007008b
:10071c00c0c0b3000400070060c0b30002000700b3
:10072c000080fa00000006000200fa00004f78007a
:10073c002172800000f02f00008060002072880081
:10074c009e00fb00207280000080700020728800e8
:10075c0034aea90015eea900348ea80000000000ec
:10076c000000000000000000348ea900500620009c
:10077c004f0007000080fa00000006000200fa009b
:10078c00004f780034aea90015eea800217280004d
:10079c0000f02f0000806000207288009e00fb009b
:1007ac00207280000080700020728800348ea800b7
:1007bc00000000000000000000000000348ea900c2
:1007cc0015eea900b000200047000700b000200083
:1007dc00450007000080fa00000006000400fa0043
:1007ec00000f780021479800070037001e007800a2
:1007fc00104078001e0fe800e0ff07002e4090002c
:10080c000040e900204798002e409000e04f500037
:10081c00f6ff3a000080fa00000006000000fa0023
:10082c0040a7a900a0032000303a8800213a80009c
:10083c00f0f32f0000806000203a8800213a8000fd
:10084c0000fe2f0000806000203a88000000eb00c2
:10085c00403a88003200200080072000a1092000c7
:10086c0033742000804978008149780082497800ef
:10087c001200200060042000710520002374200069
:10088c008049780081497800824978000000000096
:10089c00113a8000000027008080600000002300d7
:1008ac00808f5000faff3a000080fa00000006002a
:1008bc000200fa00000f78001e00e800008088009b
:1008cc000030ed000010e20005003200800c090041
:1008dc0000000000800c090000000000f8ff370049
:1008ec000080fa00000006000200fa00000f7800f9
:1008fc001e00e800008088000030ed000010e200cf
:10090c0005003200dc05090000000000dc050900d0
:10091c0000000000f8ff37000080fa00000006001d
:10092c000000fa000000eb00707388007073800008
:10093c007072880070728000f0718800f071800015
:10094c007071880070718000f0708800f070800009
:10095c00707088002170800030fc2f0000806000d7
:10096c00207088000170800030fc2f000080600037
:10097c000070880030cea80030eea80024ff0700dd
:10098c000080fa00000006000000fa00a3ff070038
:10099c00e3ff070010c0b30063ff0700202f2800ff
:1009ac00b1c0b3008dff070000ccb3005eff0700a1
:1009bc00e02f2800e1c0b30088ff0700ffff3700dd
:020000040000fa
:1009cc000010000002000000800000000000000089
:020000040000fa
:0200000401f009
:04000c00f8ff0000f9
:020000040000fa
:0200000401f009
:040010007dff000070
:020000040000fa
:0200000401f009
:040014007fff00006a
:00000001FF
